:020000040800F2
:1000000000000220D9A6000801A6000805A60008E5
:1000100009A600080DA6000811A6000800000000AF
:1000200000000000000000000000000015A600080D
:1000300019A60008000000001DA6000821A600085F
:1000400029A7000829A7000829A7000829A7000850
:1000500029A7000829A7000829A7000829A7000840
:1000600029A7000829A7000829A7000829A7000830
:1000700029A7000829A7000829A7000829A7000820
:1000800025A6000831A6000829A7000829A700080E
:1000900029A7000829A7000829A7000829A7000800
:1000A00029A7000829A7000829A7000829A70008F0
:1000B00029A7000829A7000829A7000829A70008E0
:1000C00029A7000829A7000829A7000829A70008D0
:1000D00029A7000829A7000829A7000829A70008C0
:1000E00029A7000829A7000829A7000829A70008B0
:1000F00029A7000829A7000829A7000829A70008A0
:1001000029A700083DA6000829A7000829A700087C
:1001100029A7000829A7000849A6000865A6000825
:1001200029A7000829A7000829A7000871A6000828
:1001300029A7000829A7000829A7000829A700085F
:1001400029A7000829A7000829A7000829A700084F
:1001500029A700087DA6000829A7000829A70008EC
:1001600029A7000829A7000829A7000829A700082F
:1001700029A7000829A7000829A7000800000000F7
:0801800029A7000829A70008C7
:1001900010B5054C237833B9044B13B10448AFF3C1
:1001A00000800123237010BD8800002000000000A3
:1001B0003CB0000808B5034B1BB103490348AFF33B
:1001C000008008BD000000008C0000203CB000084A
:1001D00010F8012B11F8013B012A28BF9A42F7D0F1
:1001E000D01A7047034613F8012B002AFBD1181AC6
:1001F000013870470000000000000000000000000F
:1002000001F0FF01102A2BDB10F0070F08D010F8C7
:10021000013B013A8B422DD010F0070F42B3F6D1CB
:10022000F0B441EA012141EA014122F007047FF0E4
:1002300000070023F0E80256083C85EA010586EA3B
:10024000010685FA47F5A3FA87F586FA47F6A5FA77
:1002500087F68EB9EED1F0BC01F0FF0102F0070283
:1002600032B110F8013B013A83EA010313B1F8D12E
:100270000020704701387047002D06BF354603380F
:10028000073815F0010F07D1013015F4807F02BF48
:10029000013015F4C03F0130F0BC0138704700BF99
:1002A00081F0004102E000BF83F0004330B54FEA27
:1002B00041044FEA430594EA050F08BF90EA020F94
:1002C0001FBF54EA000C55EA020C7FEA645C7FEA27
:1002D000655C00F0E2804FEA5454D4EB5555B8BF4A
:1002E0006D420CDD2C4480EA020281EA030382EABB
:1002F000000083EA010180EA020281EA0303362D4D
:1003000088BF30BD11F0004F4FEA01314FF4801C1F
:100310004CEA113102D0404261EB410113F0004F31
:100320004FEA03334CEA133302D0524263EB4303E8
:1003300094EA050F00F0A780A4F10104D5F1200E86
:100340000DDB02FA0EFC22FA05F2801841F10001E1
:1003500003FA0EF2801843FA05F359410EE0A5F1B5
:1003600020050EF1200E012A03FA0EFC28BF4CF0E6
:10037000020C43FA05F3C01851EBE37101F000459C
:1003800007D54FF0000EDCF1000C7EEB00006EEBA9
:100390000101B1F5801F1BD3B1F5001F0CD3490833
:1003A0005FEA30004FEA3C0C04F101044FEA44528A
:1003B00012F5800F80F09A80BCF1004F08BF5FEA11
:1003C000500C50F1000041EB045141EA050130BDF1
:1003D0005FEA4C0C404141EB010111F4801FA4F194
:1003E0000104E9D191F0000F04BF01460020B1FAE9
:1003F00081F308BF2033A3F10B03B3F120020CDA21
:100400000C3208DD02F1140CC2F10C0201FA0CF0FE
:1004100021FA02F10CE002F11402D8BFC2F1200C63
:1004200001FA02F120FA0CFCDCBF41EA0C01904019
:10043000E41AA2BF01EB0451294330BD6FEA040462
:100440001F3C1CDA0C340EDC04F11404C4F120024D
:1004500020FA04F001FA02F340EA030021FA04F35F
:1004600045EA030130BDC4F10C04C4F1200220FAB6
:1004700002F001FA04F340EA0300294630BD21FAF4
:1004800004F0294630BD94F0000F83F4801306BFBA
:1004900081F480110134013D4EE77FEA645C18BFAE
:1004A0007FEA655C29D094EA050F08BF90EA020F45
:1004B00005D054EA000C04BF1946104630BD91EA3D
:1004C000030F1EBF0021002030BD5FEA545C05D140
:1004D0004000494128BF41F0004130BD14F580047F
:1004E0003CBF01F5801130BD01F0004545F0FE41F3
:1004F00041F470014FF0000030BD7FEA645C1ABF28
:10050000194610467FEA655C1CBF0B46024650EA5E
:10051000013406BF52EA033591EA030F41F400218A
:1005200030BD00BF90F0000F04BF0021704730B510
:100530004FF4806404F132044FF000054FF00001E5
:1005400050E700BF90F0000F04BF0021704730B5A6
:100550004FF4806404F1320410F0004548BF40427B
:100560004FF000013EE700BF42004FEAE2014FEAD0
:1005700031014FEA02701FBF12F07F4393F07F4FAB
:1005800081F06051704792F0000F14BF93F07F4FDD
:10059000704730B54FF4607401F0004521F0004120
:1005A00020E700BF50EA010208BF704730B54FF0A6
:1005B00000050AE050EA010208BF704730B511F0AB
:1005C000004502D5404261EB41014FF4806404F1E3
:1005D00032045FEA915C3FF4DCAE4FF003025FEA65
:1005E000DC0C18BF03325FEADC0C18BF033202EBED
:1005F000DC02C2F1200300FA03FC20FA02F001FA47
:1006000003FE40EA0E0021FA02F11444C1E600BFE5
:1006100070B54FF0FF0C4CF4E06C1CEA11541DBF98
:100620001CEA135594EA0C0F95EA0C0F00F0DEF863
:100630002C4481EA030621EA4C5123EA4C5350EA48
:10064000013518BF52EA033541F4801143F4801399
:1006500038D0A0FB02CE4FF00005E1FB02E506F02A
:100660000042E0FB03E54FF00006E1FB03569CF07F
:10067000000F18BF4EF0010EA4F1FF04B6F5007F85
:1006800064F5407404D25FEA4E0E6D4146EB0606F7
:1006900042EAC62141EA55514FEAC52040EA5E5080
:1006A0004FEACE2EB4F1FD0C88BFBCF5E06F1ED82A
:1006B000BEF1004F08BF5FEA500E50F1000041EB61
:1006C000045170BD06F0004646EA010140EA02000E
:1006D00081EA0301B4EB5C04C2BFD4EB0C0541EA30
:1006E000045170BD41F480114FF0000E013C00F345
:1006F000AB8014F1360FDEBF002001F0004170BD69
:10070000C4F10004203C35DA0C341BDC04F1140481
:10071000C4F1200500FA05F320FA04F001FA05F20D
:1007200040EA020001F0004221F0004110EBD370DA
:1007300021FA04F642EB06015EEA430E08BF20EA06
:10074000D37070BDC4F10C04C4F1200500FA04F3A9
:1007500020FA05F001FA04F240EA020001F000413B
:1007600010EBD37041F100015EEA430E08BF20EAAE
:10077000D37070BDC4F1200500FA05F24EEA020EF6
:1007800020FA04F301FA05F243EA020321FA04F025
:1007900001F0004121FA04F220EA020000EBD370DC
:1007A0005EEA430E08BF20EAD37070BD94F0000FDC
:1007B0000FD101F00046400041EB010111F4801F10
:1007C00008BF013CF7D041EA060195F0000F18BFC1
:1007D000704703F00046520043EB030313F4801FFD
:1007E00008BF013DF7D043EA0603704794EA0C0FB7
:1007F0000CEA135518BF95EA0C0F0CD050EA4106CD
:1008000018BF52EA4306D1D181EA030101F0004149
:100810004FF0000070BD50EA410606BF1046194671
:1008200052EA430619D094EA0C0F02D150EA01367D
:1008300013D195EA0C0F05D152EA03361CBF1046BE
:1008400019460AD181EA030101F0004141F0FE415D
:1008500041F470014FF0000070BD41F0FE4141F4E1
:10086000780170BD70B54FF0FF0C4CF4E06C1CEAE1
:1008700011541DBF1CEA135594EA0C0F95EA0C0F96
:1008800000F0A7F8A4EB050481EA030E52EA033551
:100890004FEA013100F088804FEA03334FF0805572
:1008A00045EA131343EA12634FEA022245EA11159F
:1008B00045EA10654FEA00260EF000419D4208BF50
:1008C000964244F1FD0404F5407402D25B084FEAFD
:1008D0003202B61A65EB03055B084FEA32024FF4A9
:1008E00080104FF4002CB6EB020E75EB030E22BF06
:1008F000B61A754640EA0C005B084FEA3202B6EBC6
:10090000020E75EB030E22BFB61A754640EA5C0074
:100910005B084FEA3202B6EB020E75EB030E22BF04
:10092000B61A754640EA9C005B084FEA3202B6EB05
:10093000020E75EB030E22BFB61A754640EADC00C4
:1009400055EA060E18D04FEA051545EA16754FEA26
:1009500006164FEAC30343EA52734FEAC2025FEA44
:100960001C1CC0D111F4801F0BD141EA00014FF0D3
:1009700000004FF0004CB6E711F4801F04BF0143A4
:100980000020B4F1FD0C88BFBCF5E06F3FF6AFAEC0
:10099000B5EB030C04BFB6EB020C5FEA500C50F150
:1009A000000041EB045170BD0EF0004E4EEA1131D3
:1009B00014EB5C04C2BFD4EB0C0541EA045170BDDA
:1009C00041F480114FF0000E013C90E645EA060E1E
:1009D0008DE60CEA135594EA0C0F08BF95EA0C0F4C
:1009E0003FF43BAF94EA0C0F0AD150EA01347FF494
:1009F00034AF95EA0C0F7FF425AF104619462CE76B
:100A000095EA0C0F06D152EA03353FF4FDAE1046CD
:100A1000194622E750EA410618BF52EA43067FF41E
:100A2000C5AE50EA41047FF40DAF52EA43057FF4AE
:100A3000EBAE12E74FEA4102B2F1E04324BFB3F557
:100A4000001CDCF1FE5C0DD901F0004C4FEAC00245
:100A50004CEA5070B2F1004F40EB830008BF20F029
:100A60000100704711F0804F21D113F13872BCBFE3
:100A700001F00040704741F480114FEA5252C2F138
:100A80001802C2F1200C10FA0CF320FA02F018BF81
:100A900040F001004FEAC1234FEAD32303FA0CFCD4
:100AA00040EA0C0023FA02F34FEA4303CCE77FEA63
:100AB000625307D150EA01331EBF4FF0FE4040F4AD
:100AC0004000704701F0004040F0FE4040F400005C
:100AD000704700BF53B94AB9002908BF00281CBF9E
:100AE0004FF0FF314FF0FF3000F07AB9ADF1080C54
:100AF0006DE904CE00F006F8DDF804E0DDE902233C
:100B000004B070472DE9F0478C460D460446089E18
:100B1000002B51D18A4217466DD9B2FA82FEBEF13E
:100B2000000F0BD0CEF1200C01FA0EF520FA0CFCD0
:100B300002FA0EF74CEA050C00FA0EF44FEA174AD7
:100B4000250CBCFBFAF81FFA87F90AFB18CC45EA1A
:100B50000C4508FB09F3AB420AD9ED1908F1FF3245
:100B600080F02381AB4240F22081A8F102083D448D
:100B7000ED1AA4B2B5FBFAF00AFB105544EA05449D
:100B800000FB09F9A14509D9E41900F1FF3380F010
:100B90000A81A14540F2078102383C44A4EB0904D4
:100BA00040EA08400021002E61D024FA0EF4002310
:100BB00034607360BDE8F0878B4207D9002E54D0B3
:100BC000002186E821000846BDE8F087B3FA83F1EA
:100BD000002940F08E80AB4202D3824200F2FA80BC
:100BE000841A65EB03050120AC46002E3FD086E851
:100BF0001010BDE8F08712B90127B7FBF2F7B7FA7A
:100C000087FEBEF1000F34D1EB1B3A0C1FFA87FCB4
:100C10000121B3FBF2F8250C02FB183345EA03452A
:100C20000CFB08F3AB4207D9ED1908F1FF3002D2F3
:100C3000AB4200F2D1808046ED1AA3B2B5FBF2F0D0
:100C400002FB105543EA05440CFB00FCA44507D900
:100C5000E41900F1FF3302D2A44500F2B88018462F
:100C6000A4EB0C0440EA08409DE731463046BDE85D
:100C7000F087CEF1200405FA0EF307FA0EF720FAFA
:100C800004F83A0C25FA04F448EA0308B4FBF2F13C
:100C90004FEA184502FB11441FFA87FC45EA044558
:100CA00001FB0CF3AB4200FA0EF409D9ED1901F186
:100CB000FF3080F08A80AB4240F2878002393D44A9
:100CC000EB1A1FFA88F5B3FBF2F002FB103345EA8A
:100CD000034500FB0CF3AB4207D9ED1900F1FF38D7
:100CE0006FD2AB426DD902383D44EB1A40EA014164
:100CF0008FE7C1F1200722FA07F88B4005FA01F4CB
:100D000048EA030320FA07FE4FEA134CFD404EEA7F
:100D1000040EB5FBFCF94FEA1E440CFB19551FFAF3
:100D200083F844EA054509FB08F4AC4202FA01F2F3
:100D300000FA01FA08D9ED1809F1FF3043D2AC42AC
:100D400041D9A9F102091D442D1B1FFA8EFEB5FBE6
:100D5000FCF00CFB10554EEA054400FB08F8A045DA
:100D600007D9E41800F1FF3529D2A04527D9023868
:100D70001C4440EA0940A4EB0804A0FB02894C454E
:100D8000C6464D4615D312D056B1BAEB0E0364EBEE
:100D9000050404FA07F7CB401F43CC40376074606A
:100DA0000021BDE8F0871846F8E69046E0E6C24527
:100DB000EAD2B8EB020E69EB03050138E4E72846F6
:100DC000D7E7404691E78146BEE7014678E702381B
:100DD0003C4445E7084608E7A8F102083D442BE7F4
:100DE000704700BF38B50E4A0E4B12781B68054697
:100DF0004FF47A70B0FBF2F0B3FBF0F000F0EEFAD3
:100E000008B90F2D01D9012038BD044602462946F4
:100E10004FF0FF3000F09EFA034B20461D6038BDB6
:100E200000000020200000200400002008B50B4B2B
:100E30001A6842F400721A601A6842F480621A60FA
:100E40001A6842F480721A60032000F071FA0020E0
:100E5000FFF7C8FF09F0FEF9002008BD003C024082
:100E6000034A044B11681B780B441360704700BFA2
:100E70006404002000000020014B1868704700BF88
:100E80006404002038B50446FFF7F6FF631C0546EE
:100E900002D0044B1B781C44FFF7EEFF401B84423A
:100EA000FAD838BD00000020002800F0A680F8B570
:100EB000056C04463DB1236CDB060CD500230120F4
:100EC00084F83C30F8BD09F0E1F96564236C84F8DE
:100ED0003C50DB06F2D4226C49492368494D22F488
:100EE000885222F0020242F0020222644A6822F48E
:100EF00040324A604A68606802434A605968206923
:100F0000D4F808E0E768A26A21F4807159605E684D
:100F100046EA00265E605E6826F040765E605868AD
:100F200040EA0E005860986820F400609860996864
:100F3000AA4241EA0701996048D09968E06A21F025
:100F40007061996099680A439A60996821F04051EC
:100F500099609A6802439A609968257E94F8200007
:100F600021F0020199609A6842EA45029A605A6843
:100F7000002834D122F400625A60DA6AE56994F8F4
:100F80003070666922F47002DA62D86A013D40EA84
:100F90000550D862986820F400709860996841EA1A
:100FA00047219960996821F4806199609A680020CE
:100FB00042EA86229A606064236C23F0030343F0C4
:100FC00001032364002384F83C30F8BD9A6822F0C2
:100FD00070629A609A6822F040529A60BCE742F4CC
:100FE0000062616A5A605A6822F460425A605A6824
:100FF000013942EA41325A60BFE70120704700BF21
:10100000002301400100000F10B490F83C3083B081
:101010000022012B019250D002689368012180F8D0
:101020003C10D90714D4324B324C1B689168A4FB96
:1010300003439B0C03EB430341F0010191600193D7
:10104000019B2BB1019B013B0193019B002BF9D12B
:101050009368DB072CD5036C23F4E06323F00103D2
:1010600043F48073036453685C0505D5036C23F473
:10107000405343F480530364036C13F480531CBF48
:10108000436C23F0060343646FF0220100241A4BE3
:1010900080F83C4011605968C90613D117498A424B
:1010A00013D001F580718A421ED015498A4215D0AD
:1010B000002003B05DF8044B7047022003B05DF8D8
:1010C000044B70470D4B9A42F2D1906810F040509B
:1010D000EED1936843F080439360EAE75B6803F0E6
:1010E0001F030F2BF1D9E3E75B68DB06EDD0DFE7E9
:1010F0002000002083DE1B4300230140002001402C
:101100000022014090F83C30012B16D003689A6809
:10111000012122F0010280F83C109A609B68DB07F5
:1011200006D4036C23F4885323F001030B430364B8
:10113000002380F83C30184670470220704700BFFB
:1011400003689A68520502D59B68DB053ED470B5EA
:101150000C460546FFF790FE06462A6801E0601C33
:1011600025D113689907FAD56FF0120313602B6C21
:1011700043F400732B64936813F0405F15D12B7E0A
:101180009BB9D36A13F4700F0CD12B6C23F48073CA
:101190002B64286C10F4805007D12B6C43F00103B2
:1011A0002B6470BD93685B05EFD5002070BD24B142
:1011B000FFF762FE801B8442CFD22B6C002243F0EB
:1011C00004032B6485F83C20032070BD036C0022CF
:1011D00043F02003036480F83C200120704700BFE7
:1011E0000368D86C704700BFF0B590F83C3083B00E
:1011F0000022012B019257D00D680123092D2E46A4
:1012000080F83C3029D804688B68226905EB450ECC
:10121000072707FA0EF722EA07022261226903FA7A
:101220000EF3134323614B68062B2BD803EB830388
:10123000626B053B1F21994022EA01026263626BE7
:1012400006FA03F313436363364B9C423ED00023FC
:1012500080F83C30184603B0F0BD04688B68E7683E
:10126000AEB206EB46021E3A4FF0070E0EFA02FE31
:1012700027EA0E07E760E76893403B43E3604B686B
:10128000062BD3D90C2B12D803EB8303A3F1230134
:101290001F22236B8A4023EA02032363236B06FA8F
:1012A00001F119432163CFE7022003B0F0BD03EB46
:1012B0008302413AE36A1F21914023EA0103E3627A
:1012C000E36A06FA02F11943E162BDE7122D23D069
:1012D000A5F11003012BBAD8134A5368102D43F41B
:1012E00000035360B3D1114B02F1467202F52E3266
:1012F0001B6802F28332A2FB03239B0C03EB8303E4
:101300005B000193019B002BA1D0019B013B01934A
:10131000019B002BF9D19AE7034A536843F48003F9
:10132000536094E70020014000230140200000208A
:10133000074AD3684FF6FF010B40000243F0BF633A
:1013400000F4E06043F400330343D360704700BF10
:1013500000ED00E0184B70B4DC68C4F30224C4F163
:101360000706042E04F1040328BF0426062B17D910
:10137000033C0125A540013D2A400123B340013B28
:101380001940A140002841EA02010CDB00F1604055
:1013900000F561400901C9B280F8001370BC7047C4
:1013A00000221446E9E7054B00F00F000901034451
:1013B000C9B2197670BC704700ED00E0FCEC00E0AB
:1013C000002807DB00F01F0101234009024A8B407F
:1013D00042F82030704700BF00E100E00138B0F172
:1013E000807F0ED2084B10B4084C5860F02084F86F
:1013F00023000022072110469A6019605DF8044B13
:1014000070470120704700BF10E000E000ED00E0F1
:1014100088B1037910B503F0FF0204463BB1002305
:1014200002210122217118462361227110BD4271EF
:1014300008F05EFFF3E70120704700BFF8B544797C
:10144000069E012C49D096460D46022201210446F3
:101450004171027107682DBB3A6880682949C163F0
:10146000DFF8B0C02849C0F840C042F48052042ED2
:10147000C1643A603FD0082E31D0002E3ED02A46BB
:101480003E6846F4005671463E6000F097F92268C7
:101490000123106803FA05F1014300231160184687
:1014A0006371F8BD3A68C0681849C163DFF868C065
:1014B0001749C0F840C042F08052042EC1643A601F
:1014C00016D0082E0ED086B100223E6846F0005697
:1014D00071463E6000F072F9D9E70220F8BD07F1CD
:1014E0001002CDE707F11C02EFE707F11402ECE769
:1014F00007F11802E9E707F10C02C1E707F108025A
:10150000BEE700BF611500088515000855160008E4
:10151000711600087515000865160008036810B5F7
:101520001A6804464FF48050884022EA00021A608C
:101530001A680120884022EA00021A6031B9A068C6
:1015400000F07AF938B90123237110BDE06800F08A
:1015500073F90028F7D00423237110BD704700BF32
:1015600010B5846B2046FFF7F9FF0123237110BDEE
:10157000704700BF08B5806BFFF7FAFF08BD00BFDA
:10158000704700BF10B5846B236943F004032361E7
:101590002046FFF7F5FF0123237110BD704700BF00
:1015A00003685A6B910410B5044615D45A6B920027
:1015B00000D410BD0422227122694FF0005142F084
:1015C0000202226159631A6822F0805220461A6092
:1015D000BDE8104000F03CB80422027102694FF4EB
:1015E000005142F00102026159631A6822F48052EC
:1015F0001A60FFF7D3FF2368D8E700BF4379012BB8
:101600001DD0022370B40371046891E8480040F6CD
:10161000FE7521689540334321EA050193400B4351
:1016200023602368C02101FA02F20125002123EA88
:10163000020222600571417170BC084670470223A6
:1016400018467047704700BF704700BF704700BF23
:10165000704700BF10B5846B2046FFF7F3FF0123EE
:10166000237110BD08B5806BFFF7EEFF08BD00BF0A
:1016700010B5846B236943F0040323612046FFF710
:10168000E5FF0123237110BDF8B50446FFF7F4FB15
:10169000002C73D00222236884F835201A680021B8
:1016A00022F0010284F8341005461A6005E0FFF7C5
:1016B000E3FB401B05283BD823681A68D107F6D402
:1016C000A7686268E66825696169A0693A433243A0
:1016D0002A430A43E169256A1F68354E02430A43DB
:1016E000616A2A433E40042942EA060227D01A6072
:1016F0005A6922F007021143DAB22E4D5961103AAD
:10170000A5FB021212092C4823F47F73815CE1656A
:1017100023F00303032A88BF04333F228A400125B4
:101720000021A36508469A60616584F83550F8BDCC
:10173000032320226265184684F83530F8BDE56A37
:10174000216BA66A29430A431A605A6946F00401CC
:1017500022F007021143002DCED088B1B0F5005F12
:1017600018D0022E03D9032EC6D1EA01C4D5012315
:1017700040226265184684F83530F8BD0120F8BD76
:10178000012E03D0F1D3022EB6D1EEE7B5F1C07F22
:10179000B2D1ECE7032EAFD801A252F826F000BF79
:1017A0006F1700086B1700086F1700088D170008E7
:1017B0003F8010F0ABAAAAAA74B00008F0B490F869
:1017C0003440012C0DD090F83540866D0125AC4297
:1017D00080F8345008D0002380F834300220F0BC68
:1017E00070470220F0BC704704680227002580F88B
:1017F000357045652568876825F48025402F25606C
:1018000063600ABFA260A160E160C16D18BFE260C1
:101810003F238B40026CB360236843F016032360C0
:101820001AB1236843F008032360236843F00103DF
:1018300023600020D3E700BF70B50446866DFFF734
:101840001BFB94F83530022B06D080220023626502
:1018500084F83430012070BD2368216C1A6822F0AE
:1018600016021A605A6922F0800205465A6131B3A5
:101870001A6822F008021A601A6822F001021A603F
:1018800005E0FFF7F9FA401B05280FD823681B680D
:1018900013F00103F5D1E16D3F228A400121B260CE
:1018A000184684F8343084F8351070BD20220023A7
:1018B0000320626584F8343084F8350070BDA26C72
:1018C000002AD5D1D8E700BF90F83530022B03D0DD
:1018D00080234365012070470268052380F8353076
:1018E000136823F00103136000207047F0B583B044
:1018F0000023876D0193C36D3D68624908229A40B9
:10190000154204460E6803D001680868400776D483
:1019100001229A40154203D021684969080668D41B
:1019200004229A40154203D02168096889075AD4D5
:1019300010229A40154203D02168086800073FD45E
:1019400020229A40154203D021680868C00625D499
:10195000636D0BB3636DDA071AD50523216884F82C
:1019600035300B68484A23F00103A2FB06020B60E6
:10197000920A02E00B68DB0704D5019B01339A420F
:101980000193F7D20022012384F8342084F8353003
:10199000E36C0BB12046984703B0F0BDBA6094F8F1
:1019A0003520052A3BD00B6813F4802F0B6854D0E8
:1019B00019035FD5E36B002BCAD020469847C7E7D1
:1019C000BA600A6812F4802F0A6822D1D20503D4C3
:1019D0000A6822F008020A60226C002AB0D0204671
:1019E0009047E36DACE7BA60626D42F00402626555
:1019F0009EE7BA60626D42F00202626590E7086895
:101A000020F004000860BA60626D42F00102626575
:101A10007EE71103E0D5A26C002AE0D190E70A68C6
:101A2000206C22F016020A604A6922F080024A61A4
:101A300020B30A6822F008020A603F22216D02FAF0
:101A400003F300200122BB6084F8340084F83520C1
:101A50000029A1D0204688479EE713F48073A9D1BE
:101A60000A68012022F010020A6084F8343084F8F9
:101A700035009FE7636C002B9FD169E7A26C002AB9
:101A8000D7D1DAE720000020B5814E1B2DE9F04FB9
:101A9000002583B08C46D1F80080DFF804E22A46A6
:101AA00005E00132102A05F1020500F094800123BF
:101AB000934003EA08018B42F3D1DCF8046026F07E
:101AC000100909F1FF33012B4FF0030303FA05F36B
:101AD00040F28480C768DCF80840DB431F40AC401C
:101AE0003C43C460076806F003041F402346AB4034
:101AF0003B430360F300D4D54FF00009614BCDF8B0
:101B000004905B6C5F4C43F480436364646C22F02C
:101B1000030303F1804304F4804403F59C330194F0
:101B200002F00304019FD3F808A0A4000F27A740E8
:101B30002AEA070A544FB84222D007F58067B84214
:101B400000F08280514FB84200F08380504FB8427D
:101B500000F084804F4FB84200F085804E4FB8426D
:101B600000F086804D4FB84200F08780DFF8349156
:101B700048450CBF4FF007094FF0080909FA04F96E
:101B80004AEA09079F60DEF80030CC43F70354BFF0
:101B900023400B43CEF80030DEF80430B70354BFC7
:101BA00023400B43CEF80430DEF80830F70254BF70
:101BB00023400B43CEF80830DEF80C30B60202F1B9
:101BC000010254BF23400B43102ACEF80C3005F11C
:101BD00002057FF46CAF03B0BDE8F08F8468DCF8D9
:101BE0000870DB4304EA030ADCF80C40AC4044EA2A
:101BF0000A048460D0F804A0C6F300142AEA010A9B
:101C0000944044EA0A044460C468AF401C4027433F
:101C1000B9F1020FC7607FF465AF4FEAD20900EB5C
:101C2000890902F00707D9F82040BF004FF00F0BD9
:101C30000BFA07FB24EA0B0ADCF81040BC4044EA2C
:101C40000A04C9F820404DE74FF0010909FA04F9E8
:101C500096E74FF0020909FA04F991E74FF00309FA
:101C600009FA04F98CE74FF0040909FA04F987E747
:101C70004FF0050909FA04F982E74FF0060909FA5D
:101C800004F97DE7003802400000024000080240ED
:101C9000000C0240001002400014024000180240F4
:101CA000003C0140001C0240002800F0D7812DE9D3
:101CB000F0410368DD0782B004462FD5AB498A683E
:101CC00002F00C02042A00F023818A6802F00C0260
:101CD000082A00F019816368B3F5803F00F05A814B
:101CE000B3F5A02F00F0E580A04D2A6822F48032E1
:101CF0002A602A6822F480222A60002B40F0E280C9
:101D0000FFF7BAF8064605E0FFF7B6F8801B64282F
:101D100000F2F6802B689B03F6D423689F0728D532
:101D2000924A916811F00C0F00F09080916801F0D8
:101D30000C01082900F08680E368002B00F00F8179
:101D40008B4B8A4D01221A60FFF796F8064605E094
:101D5000FFF792F8801B022800F2D2802B689807C8
:101D6000F6D52B68226923F0F80343EAC2032B60FF
:101D700023681A0752D4580730D57C4A136C13F0E5
:101D800080537ED000267B4D2B68D90540F1A8807A
:101D9000A368012B00F02881052B00F0C380734D50
:101DA0002A6F22F001022A672A6F22F004022A67B2
:101DB000002B40F0C080FFF75FF841F28837804683
:101DC00006E0FFF759F8A0EB0800B84200F298804F
:101DD0002B6F9807F5D4002E40F00C81A069C8B194
:101DE000624DAA6802F00C02082A00F0D980624A0B
:101DF00000210228116000F00381FFF73DF82C4616
:101E0000054604E0FFF738F8401B022878D823681D
:101E10009B01F7D4002002B0BDE8F081636903B3F1
:101E2000564B524D01221A60FFF726F8064604E091
:101E3000FFF722F8801B022862D86B6F9B07F7D54B
:101E4000236898E7526856023FF576AF474A126812
:101E5000950722D5E268012A1FD0012002B0BDE813
:101E6000F081464A414D1360FFF706F8064604E04C
:101E7000FFF702F8801B022842D86B6F9F07F7D448
:101E8000DEE70193136C43F080531364136C03F08B
:101E900080530193019B012675E7344920690A6844
:101EA00022F0F80242EAC0020A601A077FF563AF27
:101EB000B4E72E4B1A6842F480221A601A6842F482
:101EC00080321A60FEF7D8FF284D064604E0FEF780
:101ED000D3FF801B642813D82B689A03F7D51CE71F
:101EE0002B6843F480732B60FEF7C6FF07462B6810
:101EF000DA053FF54DAFFEF7BFFFC01B0228F6D94C
:101F0000032002B0BDE8F0814A6850027FF5E3AEDD
:101F1000164A126891037FF501AF6268002A7FF4C8
:101F2000FDAE9AE7114B1A6F42F004021A671A6F5E
:101F300042F001021A67FEF79FFF0C4D804641F206
:101F4000883705E0FEF798FFA0EB0800B842D7D825
:101F50002B6F9B07F6D5002E3FF440AF4AE0044AB2
:101F6000024D1360FEF788FF06460EE0003802407F
:101F7000000047420070004060004742800E474228
:101F8000FEF77AFF801B0228BAD82B689907F7D48E
:101F90002368EEE6324A136843F48033136091E716
:101FA00001283FF438AFAB68E26903F48001914245
:101FB0007FF453AF226A03F03F0191427FF44DAFAB
:101FC00047F6C072616A1A408A427FF446AFA26A3D
:101FD00003F4403191427FF440AFE06A03F0706354
:101FE000181A18BF012016E71D4A136F43F00103AA
:101FF0001367A0E71A4A136C23F080531364EDE6CD
:10200000FEF73AFF064605E0FEF736FF801B022882
:102010003FF676AF2B689901F6D4E369276A666AC2
:10202000A26AE06A0F490E4C3B4343EA861352080A
:1020300043EA0063013A43EA024301226B600A600B
:10204000FEF71AFF054605E0FEF716FF401B0228C3
:102050003FF656AF23689A01F6D5DBE601207047BC
:102060000038024060004742174908B58B6803F00A
:102070000C03042B1BD0082B17D14A684B6813F4B0
:10208000800302F03F0214D149681048C1F388115F
:10209000A1FB0001FEF71EFD0B4B5B68C3F3014380
:1020A00001335B00B0FBF3F008BD084808BD0848E9
:1020B00008BD4B680648C3F38813A3FB0001002347
:1020C000FEF708FDE8E700BF003802400024F400F6
:1020D00000127A0060B1494A136803F00F038B4283
:1020E00008D2CBB21370136803F00F03994201D0EA
:1020F0000120704703682DE9F0419D0714D55C0766
:1021000004D53F4CA26842F4E052A2601A0704D5FD
:102110003B4CA26842F46042A260394C8568A268D8
:1021200022F0F0022A43A260DF0704460D4622D5C2
:102130004268012A5CD0931E012B314B1B6851D998
:10214000990725D52E4EB36823F003031343B360DC
:10215000FEF792FE41F28837804605E0FEF78CFEDE
:10216000A0EB0800B84240D8B368626803F00C03E3
:10217000B3EB820FF2D1214A136803F00F039D42A3
:1021800009D2EBB21370136803F00F039D4202D023
:102190000120BDE8F08123685A0706D51849E06898
:1021A0008A6822F4E05202438A601B0707D5144A6A
:1021B0002169936823F4604343EAC1039360FFF706
:1021C00053FF0F4B0F4C9B680F49104AC3F3031387
:1021D000E35C20FA03F308681360FEF703FE0020B7
:1021E000BDE8F0819801ADD4D2E70320BDE8F081CD
:1021F000034B1B689E03A5D4CAE700BF003C024006
:10220000003802405CC900080400002020000020C3
:10221000B0B138B54379044603F0FF0263B12168D9
:10222000022363710B680022012543F004030B6055
:1022300010466571A26038BD027108F0D1F8EEE772
:10224000012070472DE9F04389B005468846FEF726
:1022500013FE00230646082128680093019301F02D
:102260006DF9044618B1204609B0BDE8F083296D28
:102270002868090401F032FA04460028F3D1082046
:102280004FF0FF3102220123029103900DEB000178
:1022900030272868069405920793049701F03AF9CD
:1022A000286801F03DFA04460028DCD1814640F25E
:1022B0002A4704E0FEF7E0FD801B013015D02868B6
:1022C000436B3B42436B0BD19B02F3D501F008F902
:1022D00008AB03EB890309F1010943F8200CE9E796
:1022E000190705D508248463BDE74FF00044BAE719
:1022F000436B9A0702D502248463B4E7436B9B06C1
:1023000002D520248463AEE7019A009B12BA40F202
:102310003A511BBA816388E80C00A4E72DE9F04F1D
:102320000E4687B0044615469846FEF7A5FD002EDA
:1023300032D0074694F83400C0B2012807D0A36B0E
:1023400043F00053A363012007B0BDE8F08FE26DB6
:1023500005EB080300219342A16318D8636C206841
:102360000322012B84F83420C1624FF4007118BF9E
:102370006D0201F0E3F8B8B123687A4A9A63A26B60
:1023800001231043A063184684F83430DCE7A36BC4
:1023900043F00073A363D7E7A36B012043F000630E
:1023A000A36307B0BDE8F08F4FF0FF314FEA48223A
:1023B000902304904FF0010A00914FF00209694602
:1023C000206801920293CDF80C90CDF814A001F092
:1023D000A1F8D04543D9C4F830902946206801F0CF
:1023E000CBF8002842D1DDF804A040F22A3B236854
:1023F0005A6B12EA0B0F5A6B45D112041BD5BAF176
:10240000000F18D0351D06F1240900E02368184696
:1024100001F066F805F8040C020A030C000E05F83A
:10242000032C05F8023C05F8010C04354D45EDD1AF
:102430002036AAF1200AFEF71FFD109BC01B834225
:10244000D5D82368474A9A63A36B012143F0004320
:102450000022A363032084F83410226374E7C4F8D5
:1024600030A02946206801F077F8BAE723683D4A92
:102470009A63A26B012310430022A06384F83430D6
:102480001846226360E7D5050BD5B8F1010F08D9CE
:10249000626C032A05D0184601F09CF823680028D6
:1024A000E5D15A6B12F008022FD1596B11F00201DD
:1024B00038D15A6B900641D404361AE0BAF1000FB5
:1024C0001BD001F00DF8030C020A06F8040C000EF4
:1024D00006F8023C06F8032C06F8010CFEF7CCFCCB
:1024E000109BC01B8342AAF1040A06F1040623686C
:1024F00030D95A6B92021846E0D440F23A51012288
:102500009963002084F834201EE7164A9A63A36B6F
:10251000012243F008030021A363104684F834200D
:10252000216311E70F499963A36B012143F0020373
:10253000A363084684F83410226305E7094A9A63C6
:10254000A36B012243F02003A363104684F83420D8
:102550002163F9E6034A9A63A36B012243F0004327
:10256000D9E700BFFF0540002DE9F0470D4688B0D0
:10257000044690461F46FEF77FFC002D33D00646EA
:1025800094F83400C0B2012807D0A36B43F0005385
:10259000A363012008B0BDE8F087E26D08EB0703F4
:1025A00000219342A16319D8636C20680322012B98
:1025B00084F83420C1624FF4007118BF4FEA4828F4
:1025C00000F0BCFFB8B123685C4A9A63A26B012398
:1025D0001043A063184684F83430DBE7A36B43F064
:1025E0000073A363D6E7A36B012043F00063A363EA
:1025F00008B0BDE8F0874FF0FF33790205900690F0
:10260000902202930391012302A920680492079368
:1026100000F080FF012F37D9202341462363206833
:1026200000F0C8FF002836D1DDF80CA040F21A39BE
:1026300023685A6B12EA090F5A6B39D1510411D52C
:10264000BAF1000F0ED005F1200800E0236855F81C
:10265000042B0192184601A900F046FFA845F5D1C8
:10266000AAF1200AFEF708FC109B801B8342DFD8EA
:102670002368324A9A63A36BA3630122002384F880
:1026800034200320236385E7102341462363206819
:1026900000F082FFC6E72368284A9A63A26B0123F1
:1026A00010430022A06384F834301846226371E797
:1026B000D2050AD5012F08D9626C032A05D0184625
:1026C00000F088FF23680028E6D15A6B12F0080258
:1026D00013D1596B11F002011CD1586B10F010008E
:1026E00024D0164A9A63A36B012243F01003A3631C
:1026F000104684F8342021634CE7104A9A63A36B98
:10270000012243F008030021A363104684F834201B
:1027100021633FE709499963A36B012143F0020359
:10272000A363084684F83410226333E740F23A5139
:102730000122996384F834202CE700BFFF05400094
:10274000704700BF426EF0B40346970FC2F3836632
:10275000C2F30165C2F30744C2F30720D2B20F707F
:102760004E708D70CC7008714A719A6E150DC2F35F
:102770000344CD8000200C72C2F3C037C2F3803610
:10278000C2F34035C2F300344F728E72CD720C73B7
:102790004873586C00286CD1D86E40F6FC7404EA7B
:1027A000820242EA90720A61C0F34255C0F3824449
:1027B000C0F3C232C0F3C267C0F302660F754E7534
:1027C0008D75CC750A760A690C7E04F00704023414
:1027D0000132A2405A650D7A012405F00F05AC4084
:1027E000650A02FB05F24FF400759C65DA651D660B
:1027F000C0F38034C0F3C61200F07F004C768A76B6
:10280000C8761B6FDD0FC3F34174C3F382620D778B
:10281000C3F383574C77C3F340568A77C3F300451D
:10282000C3F3C034C3F380320020CF7781F8206037
:10283000C3F3403781F82100C3F3003681F82250FA
:1028400081F82340C3F3812581F82420C3F30124B8
:102850000122C3F3460381F8257081F8266081F8D0
:10286000275081F8284081F8293081F82A20F0BCCF
:10287000704701280CD01A680E4991639A6B0121A8
:1028800042F080529A63084683F83410F0BC7047D7
:10289000D86E120402F47C1242EA10420A610A69FC
:1028A000013292024FF400745A65DA659C651C6629
:1028B0009EE700BFFF054000F0B599B000237622E7
:1028C0000A930B930C920AAA044607CA2568079339
:1028D0008DE807000893099307AB0ECB284600F05C
:1028E000E3FD18B10126304619B0F0BD6F4E054624
:1028F00001272068356000F0FDFD376020680695EF
:1029000000F08AFE054640B1012684F83460A36BCE
:1029100030461D43A56319B0F0BD206800F0A2FE4B
:1029200040B9A7640021206800F0D8FE60B14FF0E4
:102930008055E9E7A564206800F06EFE0546002892
:10294000E2D1A36C012BEDD0069B4FF6FE77BB4284
:1029500000F29380564E2068002100F0BFFE314601
:1029600005460028D0D1206800F0C8FE01460028A6
:10297000DDD1206800F0CAFD069B013306930028D4
:10298000069B01DBBB42E6D9069A4FF6FE739A42DC
:1029900002D94FF08075B7E743006BD4002363641E
:1029A00001232068ADF8163000F0ACFD50B94FF0AF
:1029B0008060012684F83460A36B1843A06330461E
:1029C00019B0F0BD636C032B0FD10421206800F017
:1029D0009DFD000DE0640DA92046FFF7B3FE0646FD
:1029E00000284ED04FF08050E3E7206800F0AAFEA8
:1029F0000028DED10146206800F088FD04216067D0
:102A0000206800F083FD0821A067206800F07EFDAB
:102A10000C21E067206800F079FD636CC4F8800049
:102A2000032BD2D00DF11601206800F0A7FE00287C
:102A3000BFD1636C032BC8D0BDF816102165206888
:102A4000090400F08DFE0028B3D10146206800F093
:102A50005DFD04216066206800F058FD0821A06635
:102A6000206800F053FD0C21E066206800F04EFD68
:102A70002067AAE70123636492E7069BBB4288D8DC
:102A80008CE7226D20681204334600F0B5FD002863
:102A90008FD1231D54F8105B94E807008DE80700E0
:102AA00028460ECB00F000FD1DE700BFA0802542A8
:102AB000000010C1C8B190F8343010B503F0FF0227
:102AC000044673B1032384F834302046FFF7F4FE44
:102AD00028B90123A063206384F8343010BD01209D
:102AE00010BD027707F094FCECE70120704700BFAF
:102AF000F0B4436C876CC66C056D446D826D0B60E1
:102B0000C36D006EC8614F608E60CD600C610020A7
:102B10004A618B61F0BC7047F0B5436C032293426D
:102B20008BB0044680F834200E4615D0B1F5805F96
:102B300012D0B1F5006F32D000293ED0836B43F044
:102B400000638363A56B75B123683A4A9A630120D9
:102B500084F834000BB0F0BDA36B43F08053A36343
:102B6000A56B002DF0D16269A369079609930892BD
:102B70000AAB13E907006668E368A768049626684D
:102B800006938DE80700059704AB0ECB304600F0A6
:102B90008BFC0123284684F834300BB0F0BD0023B1
:102BA000194600680493059300F0B0FC80011DD520
:102BB0003046A36B1843A063C4E7006804910591F5
:102BC00000F0A4FC820105D54FF40060A16B08431E
:102BD000A063B7E704A92046FFF734FB0028F5D12E
:102BE000059BDB030ED44FF08060EFE704A920467D
:102BF000FFF728FB0028DCD1059B59030ED44FF0CA
:102C00008060D6E7216D2068090400F067FD002888
:102C1000DCD10146206800F027FED7E7216D20684F
:102C2000090400F05BFD0028C3D10221206800F0F8
:102C30001BFEBEE7FF054000016D10B50904044608
:102C4000006800F0F1FD20B1A16B0843A0630020F3
:102C500010BD0146206800F059FCC0F3432010BDB0
:102C600010B5846B236840F23A529A632046FFF70E
:102C7000E3FF012205380023904284F834202363C7
:102C800008D9A36B204613B1FFF75AFD10BD03F01E
:102C900059FA10BD206800F09DFCA36B1843A06397
:102CA000EFE700BF2DE9F04104460068256B436B58
:102CB0001A0482B01ED52B0700F1CE80436BDB05D2
:102CC00040F18F804FF480738363C36B23F44343DD
:102CD00023F03A03C363C36A23F00103C3622906E6
:102CE00005D5AA0600F1F880AB0700F0A78002B076
:102CF000BDE8F081436BDF0523D54FF48073836318
:102D0000C36B23F4434323F03A03C363C36A2E0720
:102D100023F00103C362E2D515F0220F40F0BE801C
:102D200040F23A5101220023816384F83420204686
:102D30002363AC0700F08B8003F010FA02B0BDE80B
:102D4000F081436B5F044ED4426B40F23A231A4247
:102D5000CDD0436B990703D5A36B43F00203A36364
:102D6000436B1A0703D5A36B43F00803A363436BBC
:102D70009B0603D5A36B43F02003A363436BDF06DD
:102D800003D5A36B43F01003A363436B9E0503D5E8
:102D9000A36B43F00803A36340F23A738363C36BEE
:102DA00023F44E7323F00203C36300F013FCA36B00
:102DB000290740EA0300A06375D42A0697D515F0C9
:102DC000300F40F0958015F0030575D0206C4E4B08
:102DD0000365FEF779FD002889D0206CFFF740FFDE
:102DE00085E7436BB0E72E07AED5666A002E3FF449
:102DF0007EAF276A07F1040807F1240500E0206888
:102E000018F8043C019318F8032C43EA02230193B9
:102E100018F8022C43EA0243019318F8012C01A987
:102E200043EA026308F10408019300F05DFBA84542
:102E3000E5D12037203E2762666258E72268D36AD0
:102E4000012123F00803D362204684F8341003F0F4
:102E50007FF902B0BDE8F081E76A002F3FF447AF89
:102E6000D4F8288008F1040508F1240600E0206861
:102E700000F036FB05F8040C020A030C000E05F8FE
:102E8000032C05F8023C05F8010C0435B542EED1DF
:102E900008F12003203FA362E76228E700F09AFBD5
:102EA00098B920683CE70122002384F834202046AA
:102EB0002363FFF745FC1AE70123A563204684F846
:102EC0003430256303F03EF911E7A36B1843A06388
:102ED0002046FFF735FCE4E700F07CFB00283FF4D8
:102EE00003AFA36B1843A0632046FFF729FCFBE662
:102EF000E06B064B0365FEF7E7FC00283FF4F7AEF6
:102F0000E06BFFF7ADFEF2E6612C0008112F000820
:102F1000FFF7A6BE0223026880F83D30936803F0F5
:102F20000703062B03D0136843F00103136001234A
:102F300080F83D30002070470222036880F83D2071
:102F4000196A41F21112114208D1196A40F2444241
:102F5000114203D11A6822F001021A60012380F89D
:102F60003D300020704700BF0368DA6842F001027C
:102F7000DA609A6802F00702062A03D01A6842F063
:102F800001021A60002070470368DA6822F001022B
:102F9000DA60196A41F21112114208D1196A40F23D
:102FA0004442114203D11A6822F001021A60002043
:102FB000704700BF704700BF704700BF704700BF39
:102FC000704700BF03681A69910710B5044602D51F
:102FD000DA68920762D41A69500702D5DA68510795
:102FE00049D41A69120702D5DA68100731D41A6970
:102FF000D20602D5DA68D00618D41A69D10702D5EC
:10300000DA68D2076BD41A69100602D5DA6811069D
:103010006DD41A69520602D5DA68500657D41A6977
:10302000910602D5DA68920649D410BD6FF01002FD
:103030001A61DB69082213F4407F2277204661D1B0
:10304000FFF7B8FF2046FFF7B9FF00222368227779
:10305000D3E76FF008021A61DB690422990722772F
:10306000204655D1FFF7A6FF2046FFF7A7FF002215
:1030700023682277BBE76FF004021A619B69022282
:1030800013F4407F227720463FD1FFF793FF20467D
:10309000FFF794FF002223682277A2E76FF0020275
:1030A0001A619B6901229B07027728D1FFF782FFF3
:1030B0002046FFF783FF0022236822778BE76FF01B
:1030C000200220461A61BDE8104000F005B96FF0FB
:1030D00040021A612046FFF773FF23689FE76FF0F5
:1030E00001021A61204603F04FFA23688BE76FF064
:1030F00080021A61204600F0F1F8236889E7FFF7A3
:103100005BFFD8E7FFF758FF9FE7FFF755FFC1E7E1
:10311000FFF752FFABE700BF3C4A03689042F0B4B0
:1031200059D0B0F1804F68D0A2F57C42904227D0B0
:1031300002F58062904223D002F5806290421FD057
:1031400002F5784290421BD002F57052904231D085
:1031500002F5806290422DD002F58062904229D023
:10316000A2F59832904225D002F58062904221D09B
:1031700002F5806290421DD04D698C680A6820E09B
:103180004A68CE684C698F680D6823F0700313435A
:1031900023F440731E4A334323F0800323439042B9
:1031A0000360C762856201D10B6903630123436138
:1031B000F0BC7047CE684D698C680A6823F4407390
:1031C000334323F080032B4303600123C4628262F4
:1031D000F0BC436170474D68CC684A6923F07003C6
:1031E0002B4323F44073234323F0800313430360F2
:1031F0008B68C3620B688362D6E74F68CE684D69FF
:103200008C680A6823F070033B43D7E70000014055
:1032100000040140B8B190F83D3010B503F0FF0252
:1032200004465BB1022384F83D302068211DFFF77E
:1032300073FF012384F83D30002010BD80F83C204E
:1032400007F0A4F9EEE70120704700BF90F83C308A
:10325000012B3AD00368022270B480F83D205A68EE
:103260000E681B4D9C6822F070023243AB424FF057
:10327000010680F83C605A6019D0B3F1804F16D037
:10328000144A934213D002F5806293420FD002F5A4
:10329000806293420BD002F57842934207D002F548
:1032A0007052934203D0A2F59432934204D14A68FB
:1032B00024F0800414439C600023012280F83D2008
:1032C00080F83C3070BC184670470220704700BF41
:1032D0000000014000040040704700BF704700BF7D
:1032E000124B134A1B68A2FB03235A0A41F288338C
:1032F000014603FB02F313F1FF330BD34A6B12F0C9
:10330000450FF8D01205F6D44B6B5B0705D50420AA
:10331000886370474FF000407047486B10F0010021
:1033200015BF0120C52388638B63704720000020F0
:10333000D34D62100F4B104A1B68A2FB03235A0A9D
:1033400041F28833014603FB02F313F1FF330ED33E
:103350004A6B12F0450FF8D01205F6D4486B10F006
:10336000040015BF0420C52388638B6370474FF0AA
:103370000040704720000020D34D6210474B10B42E
:103380001B68474CA4FB03435B0A02FB03F242B1F8
:10339000436B13F0450F01D01C0507D5013A002AF5
:1033A000F6D14FF000405DF8044B7047436B5B076C
:1033B00005D5042383635DF8044B18467047436BBF
:1033C000DC0712D4C52383630369DBB2994201D0C1
:1033D0000120E8E74369334818400028E3D0002B78
:1033E00007DB5A0008D54020DDE701238363184638
:1033F000D9E74FF00070D6E79C0001D58020D2E7D6
:10340000D90002D54FF48070CDE71A0102D54FF4F0
:103410000070C8E75C0102D54FF48060C3E7D901B2
:1034200002D54FF40060BEE71A0202D54FF4805077
:10343000B9E75C0202D54FF40050B4E7990202D517
:103440004FF48040AFE7DA0202D54FF40040AAE71C
:103450005C0302D54FF40030A5E7990302D54FF481
:103460008020A0E7DA0302D54FF400209BE71C047C
:1034700002D54FF4801096E7590402D54FF400109E
:1034800091E79A0402D54FF480008CE713F0080FFF
:103490000CBF4FF480304FF4000084E72000002080
:1034A000D34D621008E0FFFD84B070B404AC84E832
:1034B0000E00059E069A079D089C0B463343134356
:1034C0002B4342680999234370BC22F4FD420B430D
:1034D00022F07F021343436004B00020704700BF16
:1034E000D0F88000704700BF0B68C0F88030002023
:1034F000704700BF08B5032303600220FDF7C2FC3C
:10350000002008BD006800F00300704714304058E8
:10351000704700BF0A1D30B42CCA0C6844620C69A5
:103520008262C26A49692B43234322F0F7020B43AC
:103530001343C36230BC0020704700BF8160C36882
:1035400023F47F6323F00F0343F48A63C36041F2E3
:1035500088321021FFF712BF8160C36823F47F63B4
:1035600023F00F0343F48A6343F00103C36041F285
:1035700088321121FFF702BF8160C36823F47F63A3
:1035800023F00F0343F48A6343F00203C36041F264
:1035900088321221FFF7F2BE8160C36823F47F6393
:1035A00023F00F0343F48B63C36041F28832182188
:1035B000FFF7E4BE8160C36823F47F6323F00F0349
:1035C00043F48B6343F00103C36041F28832192155
:1035D000FFF7D4BE00238360C368064A23F47F63E9
:1035E00023F00F0343F4896343F00403C3600C2109
:1035F000FFF7C4BE00E1F5058260C36823F47F6372
:1036000023F00F0343F4886343F00703C36041F2E0
:1036100088320721FFF7B2BE002383600F4BC268D8
:103620000F491B6822F47F62A1FB031322F00F02F3
:10363000590A42F4806241F28833C26003FB01F30D
:1036400002E0426B120605D413F1FF33F9D24FF0BA
:1036500000407047C523836300207047200000208E
:10366000D34D62104FF4D57383601A4BC2681B6848
:103670000146194822F47F62A0FB030322F00F02E7
:10368000580A42F4896241F28833CA6003FB00F3AE
:1036900013F1FF330BD34A6B12F0450FF8D012052C
:1036A000F6D44B6B5B0705D50420886370474FF059
:1036B00000407047486B10F0010008D14B6B13F0CD
:1036C000400302D040238B637047184670470120A7
:1036D0008863704720000020D34D62108160C3686A
:1036E00023F47F6323F00F0343F48E6343F0070357
:1036F000C36041F288323721FFF740BE41F00041FC
:1037000041F480118160C36823F47F6323F00F03C9
:1037100043F48D6343F00103C360FFF70BBE00BFAA
:1037200000238360C36823F47F6323F00F0343F413
:103730008E6343F00303C36041F288323321FFF705
:103740001DBE00BF00238360C36823F47F6323F0A2
:103750000F0343F4986343F00203C360FFF7C0BD57
:103760008160C36823F47F6323F00F0343F49963FC
:1037700043F00103C360FFF7B3BD00BF002310B4E3
:103780008360C268264B274C1B6822F47F6222F0BC
:103790000F02A4FB034342F488625C0A42F0030276
:1037A00041F28833C26003FB04F313F1FF330ED3FD
:1037B000426B12F0450FF8D01205F6D4436B5B074D
:1037C0000AD5042383635DF8044B184670474FF015
:1037D00000405DF8044B7047436BDC0710D403696D
:1037E000DBB2032B01D00120F3E7C52383634369D8
:1037F00013F4604008D05A0409D54FF40050E8E7AC
:10380000012383631846E4E71B0C0B80E1E713F404
:10381000004F0CBF4FF480304FF48050D9E700BF09
:1038200020000020D34D62108160C36823F47F63C1
:1038300023F00F0343F4896343F00503C36041F2AF
:1038400088320D21FFF79ABD8160C36823F47F633E
:1038500023F00F0343F4886343F00603C36041F28F
:1038600088320621FFF78ABDFFF7EEBF034B03EB5B
:10387000800203445268187A53681847CC0200202B
:10388000064B1A5C0AB10020704703EB800201214D
:103890001954526803441268187A1047CC02002069
:1038A00030B4054C04EB800504446D68207AAC68A4
:1038B000A44630BC604700BFCC02002030B4054CA9
:1038C00004EB800504446D68207AEC68A44630BCA3
:1038D000604700BFCC020020054B10B403EB80040E
:1038E00003446468187A23695DF8044B184700BFE5
:1038F000CC020020F0B4184F00263B4632461C682C
:103900008CB10568AC4210D00132022A03F11003D9
:10391000F5D12EB902290CBF00201220F0BC70474F
:103920000020F0BC70470126EEE75D688468A54280
:10393000EAD19D684469A542E6D111B11020F0BCDE
:10394000704707EB0212F0BC9389B3F5807F14BF78
:1039500000201020704700BFA8000020F0B4224CC7
:1039600006680746224600231568B5420CD001338D
:10397000022B02F11002F7D12268002A31D022690D
:10398000EAB10020F0BC70475568B8688542EED1B6
:10399000956878698542EAD11A0151B1A1188989DF
:1039A0000029EED1581C4FF480731444A381F0BC5D
:1039B0007047A118581C8B8901339BB2F5E7184654
:1039C00001231A01A318BD687F699F6000294FF089
:1039D00000015D609981A65014BF4FF480730123EC
:1039E000E3E713460120ECE7A800002030B40468A8
:1039F000DCB125781F2D0BD93A2D16D0234602E0D5
:103A00003A2A08D00B465A781F2A03F10101F7D849
:103A1000002030BC70470134A14206D1302D04D1C2
:103A20000233036030BC002070474FF0FF3030BCE1
:103A3000704700BF58B110B5036882B004460BB19F
:103A40001A7842B9092000230B6002B010BD002390
:103A500009200B6070478088DA889042F2D158784C
:103A60000191FFF703FF10F001000199EAD12368EB
:103A70000B6002B010BD00BF0A44013811F8013BD1
:103A800000F8013F9142F9D1704700BFF8B5446B8F
:103A900000F1380705462246407839460123FFF7F2
:103AA0000DFFB0B9AA6A2B6AE870A21A9A420ED228
:103AB000AE78012E01D80AE02B6A68781C44013EDA
:103AC000224601233946FFF7F9FE012EF4D10020EA
:103AD000F8BD0120F8BD00BF38B5436B8B4218D04C
:103AE000C37804460D467BB92A46012304F1380108
:103AF0006078FFF7D5FE002818BF4FF0FF356563EB
:103B00000CBF0020012038BDFFF7C0FF0028EBD01C
:103B100038BD002038BD00BFF8B5C37804465BB996
:103B20002378032B0DD0002260781146FFF7D4FED6
:103B3000003018BF0120F8BDFFF7A8FF0028EFD024
:103B4000F8BD2379012BEED1A28904F138010A4492
:103B50000B46002503F8015B9342FBD1A369606922
:103B6000626A84F820321F0A1E0C1B0E4FEA102EC8
:103B700084F8217284F82262070C060E84F823323E
:103B800084F82402AA235520013284F8267284F88E
:103B900027625227612684F8360284F837324120A2
:103BA000722384F83B0084F81E0284F81C3284F8E7
:103BB0001D3284F825E2626384F8387084F8397025
:103BC00084F83A6084F81F6201236078FFF776FE7C
:103BD0002571A8E700224FF0FF3310B5C270436390
:103BE0000446FFF779FF08B1042010BD94F837129E
:103BF00094F836324AF6552243EA0123934201D023
:103C0000032010BD94F83830E92B07D0A36B144A79
:103C100003F0FF13934201D0022010BDB4F87000EE
:103C200094F86F2094F86E300E4942EA002243EA7D
:103C3000022323F07F438B420FD0B4F88C1094F80A
:103C40008B3094F88A00084A43EA012340EA0320B3
:103C5000904214BF0220002010BD002010BD00BF04
:103C6000EB00900046415400464154332DE9F041A9
:103C7000002384B00B600F461446FFF7B7FE061E04
:103C800019DBB54B53F82650CDB13D602B7804F0CD
:103C9000FE0423B16878FFF7E9FDC10713D5F0B240
:103CA000002368702B70FFF7EBFDC20711D50320CE
:103CB00004B0BDE8F0810B2004B0BDE8F0810C2019
:103CC00004B0BDE8F081D4B110F00400F0D00A20B7
:103CD000EEE70CB14307FAD405F10C020221687833
:103CE000FFF7FAFD48B9AB89A3F50072B2F5606F32
:103CF00003D85A1E12EA030403D00120D8E7204655
:103D0000D6E721462846FFF765FF022805D004289C
:103D1000F3D0012828D90D20CAE76E46694605F57B
:103D2000007305F5107413F8062C42B11F8813F8C0
:103D3000010C13F8022C40EA072042EA002210335B
:103D4000A34241F8042BEED104AF56F8044B2CB932
:103D50000320B742F9D10428DDD1CEE72146284619
:103D6000FFF738FF0128F4D895F8442095F8433040
:103D7000A98943EA02239942CDD195F84F2095F8BD
:103D80004E3053EA022300F089801A4695F84870B5
:103D90002A627B1E012BAF70BDD895F845C01FFA73
:103DA0008CF302FB07F76B81002BB4D00CF1FF33CF
:103DB00013EA0C0FAFD195F84A0095F849604B090A
:103DC00046EA0026B6FBF3FE03FB1E639BB22E8180
:103DD000002BA0D195F84C0095F84B3053EA002306
:103DE00009D1B5F85A8095F8590095F8583040EA4D
:103DF000082043EA002395F8478095F8460050EAEA
:103E0000082088D010FA8EFEBE44734583D3A3EBFE
:103E10000E03B3FBFCF3002B3FF47DAF4FF6F57CB4
:103E2000634563D840F6F57C634542D802332044AD
:103E3000A644EB61A862C5F830E06C62002E3FF446
:103E40006AAF03F001044E1E074403EB4303A019BD
:103E500000EB5303B3FBF1F18A42EF62FFF45BAF77
:103E60004FF0FF3380222A71AB616B6101223B4826
:103E70003B4903882A700A683A4C2C6101339BB293
:103E800095420380EB8004BF00230B600B699D42C9
:103E90004FF000007FF40CAF086109E7B5F85E0051
:103EA00095F85D3095F85C2043EA002342EA03224E
:103EB0006CE702332044A644EB61A862C5F830E009
:103EC0006C62002E3FF427AF0744481E00EB43030B
:103ED000B3FBF1F18A42EF62FFF41DAF4FF0FF3305
:103EE00080222A71AB616B610222C0E795F8638082
:103EF00095F862C06C62204402330EEB0407A8629E
:103F00005CEA0820EB612F637FF405AF002E7FF49D
:103F100002AFB5F866E095F8650095F8647040EA80
:103F20000E2047EA0027481E00EB8303B3FBF1F1A4
:103F30008A42EF62FFF4EFAE95F8691095F86830A9
:103F400043EA01234FF0FF328021012BAA616A610D
:103F5000297109D003228AE7A4000020C8000020AC
:103F6000A8000020CC000020611C2846FFF7B4FD0B
:103F70000028EFD195F8372295F836322E7143EAB2
:103F800002234AF655229342E4D1688F95F83920EE
:103F900095F83830174942EA002243EA02238B425F
:103FA000D8D1B5F81E0295F81D2295F81C3201F102
:103FB000FF5101F5005142EA0022203143EA022379
:103FC0008B42C7D1B5F8226295F82102B5F8264296
:103FD00095F8251295F8202295F8243240EA06201B
:103FE00041EA042142EA002243EA0123AA616B610B
:103FF000B0E700BF525261412DE9F8430378022B2C
:1040000004460D4616466ED0032B45D0012B02D038
:104010000220BDE8F883816A838905EB5507B7FB69
:10402000F3F31944FFF758FD0028F2D1A289B7FB3A
:10403000F2F315F0010507F1010804F1380902FB5C
:1040400013776BD019F80720330102F00F0203F049
:10405000F003134309F80730A16AA389B8FBF3F30F
:1040600001221944E2702046FFF736FD0028D0D126
:10407000A289B8FBF2F302FB1388002D50D119F886
:104080000830C6F3032223F00F061643012309F874
:104090000860E370BDE8F8838389816A9B08B5FBFB
:1040A000F3F31944FFF718FD0028B2D1A289AD003F
:1040B00004F13801B5FBF2F302FB13554A1926F05F
:1040C000704653881B0403F070431E434E554FEA5D
:1040D000162E370C0123360E82F801E09770D67049
:1040E000E370BDE8F8838389816A5B08B5FBF3F36D
:1040F0001944FFF7F1FC00288BD1A1896D0004F170
:104100003802B5FBF1F301FB135551195655C6F3AF
:10411000072701234F70E370BDE8F883F3B299E7F6
:10412000C6F30716B2E700BF01291CD9C269914244
:10413000F8B5064607D20278022A0C4632D0032A86
:1041400013D0012A01D00120F8BD816A838904EBD4
:104150005407B7FBF3F31944FFF7BEFC002839D02E
:104160004FF0FF30F8BD012070478389816A9B08BA
:10417000B4FBF3F31944FFF7AFFC0028F0D1B28988
:10418000A10006F13803B1FBF2F402FB14115A1836
:10419000585C5188537843EA012340EA032020F019
:1041A0007040F8BD8389816A5B08B4FBF3F319445E
:1041B000FFF792FC0028D3D1B089610006F13803E3
:1041C000B1FBF0F200FB12115A18585C537840EA28
:1041D0000320F8BDB189B26AB7FBF1F301FB137399
:1041E000334401373046B7FBF1F1114493F83850AE
:1041F000FFF772FC0028B3D1B289B7FBF2F302FBE0
:104200001373334493F83800E30745EA00204CBFAA
:104210000009C0F30B00F8BDB1F5001F01D3022067
:104220007047CA06F8B50C4601D00220F8BD816877
:1042300044610546076829B93B78022B1BD9FB6A04
:10424000CBB119467B89BE8906FB03F6B44228D35D
:10425000A41B384608E00128E7D9FB699842E4D25C
:10426000A6421FD82868A41BFFF75EFF431C014627
:10427000F1D10120F8BD3B89B3EB541FD5D9FA6ABF
:10428000EA61A961002AD0D0B889B4FBF0F107F146
:10429000380300FB114003440A442B62EA6100200A
:1042A000F8BDFB69023B881E98423BBF7A893B6B95
:1042B000002200FB0232EA61E3E700BF2DE9F04192
:1042C00007468846066849BB7569F369F5B9012553
:1042D0002C4606E0012815D001302ED0AC4219D072
:1042E000F36901349C4202D3012D13D902242146E3
:1042F0003868FFF719FF0028ECD1012C02D9F369C7
:104300009C421FD301242046BDE8F0819D4228BF76
:104310000125DDE700242046BDE8F0813046FFF7A7
:1043200003FF01280446EDD9431C06D0F3699842E7
:10433000E9D34546CCE70128E4D14FF0FF342046CD
:10434000BDE8F0814FF0FF3221463046FFF754FEC2
:104350000028F0D1B8F1000F0CD0B8F1010FD1D97D
:10436000F3699845CED2414622463046FFF744FED7
:104370000028E0D1F269B3697461023A934201D82E
:10438000013BB361337943F001033371BBE700BFF5
:10439000012908D9F8B50668F36999420D46074620
:1043A00003D30220F8BD0220704762B1012AF8D978
:1043B0009342F6D9114630464FF0FF32FFF71CFE0C
:1043C00048BB386816E0304614E0294600223046E3
:1043D000FFF712FEF8B9F269B369911E8B4205D25C
:1043E0003179013341F00101B3613171944213D24B
:1043F000386825462946FFF797FE044660B1012834
:10440000CFD0431C06D0012DCBD9F3699D42DCD31C
:104410000220F8BD0120F8BD0020F8BD2DE9F84FBD
:10442000C36913B90420BDE8F88F45692035B5F597
:10443000001FF7D20768BA890446B5FBF2F002FB09
:1044400010520E4652BBA1690133E36171B37B89FF
:10445000013B034222D13846FFF766FE0128804621
:104460002DD9B0F1FF3F3CD0FB6998422AD207F129
:104470003806A0F1020A023B9A453CBF7B893A6BA1
:10448000C4F8188038BF0AFB0323BA8928BF002369
:10449000E361B5FBF2F302FB135201E007F13806CA
:1044A0003244226265610020BDE8F88F3B89B3EB9E
:1044B000551FF3D80023E3610420BDE8F88F0220E4
:1044C000BDE8F88F002EF5D0A1692046FFF7F6FE73
:1044D000804648B90720BDE8F88F3846FFF7D6FA7E
:1044E00050B10120BDE8F88F0128E8D0B0F1FF3FBE
:1044F000F7D0FB78002BF0D107F13806B7F80C9015
:1045000033460022B9F1010903F8012BFAD1FB6906
:104510007A89023BA8F1020A9A4536BF3B6B4B46AB
:104520000AFB02337B634FF0010B0BE087F803B00B
:10453000FFF7ACFA0028D4D17B6B7A89013309F1FB
:1045400001097B6391453846F0D37A6BFB69A2EB96
:1045500009027A638FE700BF016B4B1C2DE9F04124
:1045600004460568466906D0FFF756FE034610B1BB
:104570001846BDE8F0814FF0E50801270BE0226AFC
:1045800082F80080EF70626996422046F0D9FFF70A
:1045900045FF034638B9E1692846FFF79DFA03460F
:1045A00001460028EBD0042B08BF02231846BDE8C3
:1045B000F08100BF2DE9F04F002185B00646076865
:1045C000FFF72AFE002854D14FF0FF334FF0FF0AC7
:1045D00033639846D1460BE00F2B4DD0C6F83080A0
:1045E0004FF0FF0900213046FFF718FF002840D1A7
:1045F000F1693846FFF770FA00283AD1346A257815
:10460000002D00F09180E27AE52D02F03F03B371B6
:10461000E4D01207E0D40F2B2ED0B9F1000F10D147
:1046200004F10B05214611F8012B4FEAC91343EAA7
:10463000590952FA89F9A9425FFA89F9F3D1CA45B1
:1046400017D096F82F30DB07C8D42546314615F829
:104650000B3B11F8242F01349B1A002BBED114F808
:10466000013B11F8012FAC42A3EB0203F5D1002B63
:10467000B4D105B0BDE8F08F96F82F305806B1D40C
:1046800069064CD5736994F80DA0336305F0BF0536
:1046900094F80DB0D34544D1E27EA37E53EA0223C1
:1046A0003FD194F800A02D4B3A6900920AF03F0ADE
:1046B0000AF1FF3A0AEB4A02012103950AEB820A4A
:1046C000254601971C4602960B4613E0BAF1FE0FF1
:1046D0001FD801F093FC009B074633F81A0001F045
:1046E0008DFC874215D14B46B2461D4AA2421FD0CF
:1046F00014F8011F15F8019068180AF101064078B6
:1047000049EA00294846002BE0D14FF6FF72914557
:10471000EBD0019F029EDA464FF0FF0962E7A94500
:10472000B6D04FF0FF095DE7042005B0BDE8F08F7B
:104730002C469E462378019F039D029E5A0606D56D
:10474000BEF1000F03D0009B33F81A3023B9013DAE
:104750005FFA85F9DA4645E7DA46E2E7FCB0000899
:1047600008B100082DE9F04FD0F800A085B0074649
:104770000B782F2B0D4601F10101F9D05C2BF7D0FE
:104780000021B96028781F2840F2428101915346E8
:1047900080B21F281E6949D92F282FD05C282DD020
:1047A0000121A6F10209A846012401F003FC08B387
:1047B0007F2809D822281DD0A54A2A23984219D03B
:1047C00012F8013F002BF9D129F8020F18F8010F58
:1047D0001F2804F1010340F2DF802F2810D05C284D
:1047E0000ED0B3F5807F05D001211C4601F0E2FB1D
:1047F0000028DDD1062005B0BDE8F08F002401239C
:104800002B441A782F2A1D4603F10103F9D05C2AA4
:10481000F7D05CB14FF0000906EB440232F8023DDC
:10482000202B01D02E2B04D1013CF7D10023338063
:10483000E0E7BDF8043026F8143006EB440207F137
:104840002F0007F12403202103F8011B8342FBD131
:10485000B31E4FF0000801E008F1010833F8020F21
:104860002028F9D02E28F7D0B8F1000F01D049F058
:104870000309134633F8022D2E2A01D0013CF9D149
:10488000002321469B461C4608222B4635460E46F1
:1048900008F1010880B3202821D02E281DD0944291
:1048A00022D2B0457CD07F2800F287802B280AD006
:1048B000DFF8A4E12C2104E01EF8011F002900F01C
:1048C00091808142F8D149F003095F203919013400
:1048D00081F8240035F81800DAE7B04502D049F035
:1048E0000309F7E794425BD30B2A00F0A480B0459C
:1048F00058D049F0030955D91D4697F82430E52BC7
:1049000004BF052387F82430082A04BF4FEA8B0B25
:104910005FFA8BFB0BF00C030C2B4BD00BF003025C
:10492000032A47D019F0020F0AD10BF0030BBBF199
:10493000010F08BF49F01009042B08BF49F008090E
:1049400087F82F903846FFF735FE97F82F3000286C
:1049500054D15A073FF54FAFBB79DB064AD5BAF8B9
:104960000C107869B0FBF1F20AF1380301FB120276
:1049700013449AF80010D87E9A7E032942EA002256
:1049800003D0BA6028783B6802E7597D1B7D43EA73
:10499000012342EA0342F4E71D444FF004093BE7D8
:1049A0000B2A48D04FEA8B0B5FFA8BFBB0460B22E9
:1049B00008248FE749F00209B4E70021039302922B
:1049C00001F0F8FA029A039B48B12249084449F0E1
:1049D000020910F8800C00283FF475AF66E749F033
:1049E000020970E7A0F1410119291AD84BF0020B16
:1049F000C0B26BE7052005B0BDE8F08F04287FF456
:104A0000FAAE13F0040F08BF052005B0BDE8F08F23
:104A10008023384687F82F3005B0BDE8F04FFFF708
:104A2000FBBBA0F16101192997BF2038C0B2C0B209
:104A30004BF0010B4AE71D4697F82430E52B49F06F
:104A400003097FF467AF052387F8243062E700BFCE
:104A50000DB100087CB0000819B100082DE9F04F35
:104A600090F82F3013F0A00289B004D0062630460B
:104A700009B0BDE8F08FD0F80080D8F81030198860
:104A8000002900F05081914633F8022F09F1010905
:104A9000002AF9D100F124040546214605A80C227C
:104AA000FEF7EAFF9DF81F30DE0770D5402385F83A
:104AB0002F300B2205A920464FF0010AA04FFEF728
:104AC000DBFF53460DF11306072203F00F0000F140
:104AD0003001392988BF00F137011B0902F1FF328B
:104AE00006F80119F1D108A911447E2001F8140C2F
:104AF00062B195F82410202909D0214603E011F86D
:104B0000010F202803D001339A42F8D113462344E1
:104B100008A91144072A94BF11F8141C202103F896
:104B2000011BA3EB040198BF01320729F0D92846E5
:104B3000FFF740FD064618BB0AF1010ABAF1640FFF
:104B40007AD00B2205A92046D8F81060FEF794FF12
:104B5000BAF1050F12D9023E534636F8022F002A49
:104B6000B0D0102102F0010000EB4303D80348BF8E
:104B70007B4001394FEA5202F4D1EEE75346A1E7F8
:104B800004287FF474AF9DF81F3085F82F309B0701
:104B900045D44FF0010900212846D5F800A0FFF7C1
:104BA0003BFB0646002844D1074605E03746FFF7A1
:104BB00035FC064600283CD1E9695046FEF78CFFDB
:104BC000012106460F44A0BB2B6A1B78E52B284623
:104BD00001D0002BEAD1B945E9D1B9F1010A30D1B0
:104BE000E9694046FEF778FF064600287FF43FAFAC
:104BF0002B6A314603F1200203F8011B9A42FBD1D4
:104C000021460B22286AFEF737FF95F82F30296AD4
:104C100003F0180301220B7388F8032027E7494BA0
:104C200009F10C09A3FB09394FEA990909F10109B6
:104C3000B1E7042E7FF41BAF0726304609B0BDE86C
:104C4000F08F69692846A1EB4A11FFF7E5FA06469D
:104C500000287FF40CAF8346214605F12F004FEA70
:104C6000CB1311F8012B43EA5B0352FA83F3814221
:104C70005FFA83FBF3D1DFF8D0900194E9694046F5
:104C8000FEF72AFF0346002858D15FFA8AFC0CF190
:104C9000FF3707EB470207EB8207D8F810402E6A70
:104CA000294A009207F1004E0EF1FF3E4FF00F022D
:104CB00086F80DB004EB4E0EF2723073B076F076DB
:104CC00001213EF8022F72543144100A0137487016
:104CD0000133EAB90D2B0AD0013B4B44FF2213F8F4
:104CE000011F70187254194942709942F7D14CF063
:104CF000400C012386F800C0002188F803302846C4
:104D0000FFF78CFBD0B9BAF1010AB7D1019C67E774
:104D10000D2B0AD04FF6FF718A42DDD0009A12F8AF
:104D2000011F0092CDE78946B4E64FF6FF739A4221
:104D3000DDD034F81730002BD9D0DAE7064696E6F6
:104D4000211001004FECC44EFCB0000808B100086F
:104D50002DE9F0410026D0F800808E75C369002B44
:104D600064D0036B01330D4607461DD0D8F81030D0
:104D70001888A0B101F1150601240BE0B4F5807F7D
:104D80000DD006F8010FD8F8103033F81400631C6A
:104D900030B11C46002101F00DF90028EED10024AD
:104DA0002C440023A375AE7D3F6A00217C1E0A4679
:104DB0004FF02E0814F8013F202B02F101021BD006
:104DC000052B08BFE523092A38D06818437296B925
:104DD000A3F1410EBEF1190F0CD8092A97F80CC0A7
:104DE00034BF4FF0080E4FF0100E1CEA0E0F1CBF20
:104DF0002033DBB2837501310B2ADBD16818BEB1D9
:104E000000234372FB7A2B72F98B7A7F3B7F42EA55
:104E1000012243EA02232B60398BFA7DBB7D42EAF3
:104E2000012243EA02231A0CEB80AA80BDE8F0813C
:104E300086753B7B002B08BF2846E1E768180EB952
:104E400080F8168080F809800131BEE72DE9F0472F
:104E5000FF27044606683D46042006E0FF250021A2
:104E60002046FFF7DBFA002856D1E169002957D028
:104E70003046FEF731FE00284ED1216A0A78002A1A
:104E800049D0CB7AE52A03F03F03A371E6D02E2A5E
:104E9000E4D023F0200EBEF1080FDFD00F2B44D159
:104EA000500635D563694F7B236302F0BF054B7B0A
:104EB000BB42D3D1CA7E8B7E53EA0223CED108787F
:104EC0002A4AD6F8108020F04000013800EB400E4E
:104ED000012300EB8E0002F10C0C9E464FF6FF7989
:104EE00009E0FE28BAD828F810309E4601309445D3
:104EF0002FD012F8013F01EB030ACB5C9AF801A016
:104F000043EA0A23BEF1000FEBD14B45EFD0A5E7F2
:104F1000AA42A3D1CBE704200023E361BDE8F087D8
:104F20000028F9D10020BDE8F0876DB901F10B062A
:104F300011F8012BEB0143EA550552FA85F5B14210
:104F4000EDB2F5D1BD42EDD04FF0FF332363BDE8A4
:104F5000F0870B785B0605D5FE283FF67FAF002370
:104F600028F81030013DEDB279E700BFFCB0000831
:104F700030B585B004AB019043F8041D184600918C
:104F80001546FEF733FD011E1ADB144C54F8213090
:104F900063B1134A1068834204BF00201060106997
:104FA000834204BF0020106100221A70019A8AB166
:104FB0000020012D107044F8212004D005B030BD30
:104FC0000B2005B030BD024601A96846FEF74EFE33
:104FD00005B030BD44F821201046EFE7A4000020C2
:104FE000A80000202DE9F04190B0019180B102F0BD
:104FF0003F070546164602A93A4601A8FEF736FEC7
:10500000044650B100232B60204610B0BDE8F0816B
:105010000924204610B0BDE8F081029B019903935A
:1050200003A8FFF79FFBD0B99DF93B30002BC0F2DE
:10503000ED8037F0010814BF0121002103A8FEF71D
:1050400059FC16F01C0F5ED060B99DF8123013F0B9
:10505000110F62D1760740F1CB800824D2E716F019
:105060001C0F4ED004284CD17E4B1A68002A00F049
:10507000B8801B69002B00F0B4801224C2E701F055
:105080007FF80B9A029BC0F30726C0F307415FFA33
:1050900080FE000ED6731174507482F80EE00B9AE5
:1050A000D6751176507682F816E00B9A2021D172CF
:1050B0000B9A1978D07E967E032946EA002600F0E6
:1050C000CA8000219176D1761878032804BF117523
:1050D00051750B99002201200A774A778A77CA779F
:1050E000D870FEB1314603A8D3F83480FFF750F9E9
:1050F00038B941460298FEF7EFFC029B013E5E6123
:1051000080B104467EE70028FBD19DF81230D90615
:105110007ED4B20703D5DB0701D5072472E7300739
:10512000029B03D547F0400727F001085A6B0B9B01
:105130006A6218F1000118BF012103A8AB62FEF7F3
:105140000DFC286108B902245CE702980B9B0178EA
:10515000DE7E9A7E032942EA062250D0AA60D98BCD
:105160005A7F1B7FB0F806E0A5F804E042EA01226E
:1051700043EA022305F13006002205F58151EB6078
:105180002860EA626A752A62AA612F753346103177
:1051900003F8012B8B42FBD1B9067FF535AFEF68E1
:1051A000002F3FF431AF8389B0F80A80A968AF615E
:1051B00003FB08F847452FD9A7EB080704E0421C7A
:1051C0000DD0B84526D21F462868FEF7ADFF01284E
:1051D0000146A7EB0803F2D80224E96112E7012493
:1051E000FBE703A8FFF73AFC47F00807002888D13F
:1051F00038073FF544AF029B27F0010896E75E7D34
:10520000197D41EA062142EA0142A7E70624F9E6B0
:105210000424F7E602988389B7FBF3FE03FB1E73B1
:10522000E961002B3FF4F0AEC3690239023B9942B9
:1052300089D24289036B01FB0232002A83D0724477
:105240002A62407831460123FEF72AFB00283FF40A
:10525000DBAE0124D6E6507D117D41EA002146EA0D
:1052600001462EE7A80000202DE9F04F984685B0B2
:1052700000238946C8F8003003A914460546FEF706
:10528000D9FB064628B96E7D1EB92B7DD90704D4FB
:105290000726304605B0BDE8F08FAA69EF68BF1A4F
:1052A000A74228BF2746002FF3D0039905F1300A03
:1052B0008889B2FBF0FC00FB1C248E46002C4ED1EA
:1052C0004B89013B13EA0C035CD1002A74D1A86816
:1052D000012840F28B80421C00F08B800399E8612A
:1052E0008E46CA690238023A90427FD2B1F80AC0AB
:1052F0000A6B00FB0C24002C78D08889B7FBF0FBEC
:105300001C44BBF1000F3FD003EB0B02624588BF8A
:10531000ACEB030B48785B4622464946FEF7C0FAE1
:10532000002866D195F91430002B76DB03998B8920
:10533000AA6903FB0BF3FF1AD8F800101A441944AA
:10534000AA619944C8F80010002FA2D00399888957
:10535000B2FBF0FC00FB1C248E46002CB0D0001BDE
:10536000B84203D800286ED1AA61A1E70AEB040174
:105370004FF0000B3A464846FEF77EFB3B46AA69D3
:105380005F46D9E7E869ACE72A6A94420DD095F9FF
:105390001430002B33DB9EF80100012322465146D6
:1053A000FEF77EFA28BB03998889AA692C62B2FBB2
:1053B000F0F400FB1424D2E7EC6A002C3CD0D5F8C2
:1053C00000E06168BEF80C00BEF80AE0B2FBF0F045
:1053D000221DB0FBFEF049B1884202D20CE08142AE
:1053E0000AD8401A52F8081F0029F8D102266E7513
:1053F0004FE701266E754CE75268104468E748781D
:1054000001235146FEF75AFA0028F2D12B7DDDF830
:105410000CE003F07F032B75BDE7286A0399001B9E
:1054200083458B8984D9002B82D003FB00901A46D8
:105430005146FEF721FB79E7E96928680193FEF7F9
:1054400073FE019B44E7A7EB000B0AEB0401074640
:1054500090E700BF2DE9F04F984685B000238A46BB
:10546000C8F8003003A917460446FEF7E3FA0546DC
:1054700028B9657D1DB9227D910704D407252846EA
:1054800005B0BDE8F08FA369FB4228BFDF43002FC2
:1054900000F0A78004F1300201921AE05A46121A75
:1054A000BA426ED8002A40F0DE80217D61F07F0193
:1054B0002175E068D8F800101344984238BF1846A8
:1054C0001144A361E0609244C8F80010002F00F07E
:1054D00087800399B1F80CB0B3FBFBF20BFB1230E1
:1054E0000028DBD1B1F80A9009F1FF3919EA020965
:1054F0000FD1002B5DD1A068002800F0A180012809
:1055000000F0A680431C70D0A368E061039903B942
:10551000A06094F91430002B6ADBE669CB69023E87
:10552000023B9E4280F094804B890A6B06FB032667
:10553000002E00F08D808A89B7FBF2FB4E44BBF150
:10554000000F29D009EB0B029A4288BFA3EB090B8D
:1055500048785B4632465146FEF7B0F9002844D100
:10556000216A039B891B8B459A8905D9002A53D14F
:10557000237D03F07F03237502FB0BF2BF1AA3699F
:1055800097E7019B002618443A465146FEF774FA05
:105590003A46A369374688E7236A9E42A36902D048
:1055A000E068834240D3B3FBF2F0266202FB103086
:1055B00075E7E66A002E4ED02068716882894089BE
:1055C000B3FBF2F3321DB3FBF0F349B18B4202D2CD
:1055D0001CE099421AD85B1A52F8081F0029F8D12A
:1055E000227D42F04002227549E70125657546E7B4
:1055F0004878226A01990123FEF760F90028F4D166
:10560000237D039903F07F03237586E750681844D0
:1056100000287FF474AFE3E702FB01A10198FEF7D5
:105620002BFA039B9A89A3E7487801990123324614
:10563000FEF736F90028D8D1039AA3699289B2E718
:1056400049462046FEF73AFE00287FF458AFC7E7E8
:105650000225657513E7E1692046FEF72FFE002855
:105660007FF44DAFBCE7019BBE1A184417468BE789
:10567000F0B583B001A90446FEF7DCF9002836D165
:10568000237D5A0633D51B0638D400F079FD616AB4
:1056900005460198FEF720FA48BBA36ADA7A42F081
:1056A0002002DA72A26821689A76C2F30720D876BF
:1056B000097803291DD0E2681A7701999D75160AA9
:1056C000100C120E5E779877DA7700202F0A2E0CD6
:1056D00001222D0E9874D874DF751E765D7608460B
:1056E000CA70FEF719FA237D23F04003237503B037
:1056F000F0BD120C110A1A755975DCE7019B226A7C
:10570000587804F130010123FEF7D8F820B9237D41
:1057100003F07F032375B8E70120E8E770B582B096
:105720000446FFF7A5FF08B102B070BD01A92046ED
:10573000FEF780F90028F7D12369013B012B02D93C
:10574000022002B070BD094D1B01E9188A8922F4BC
:1057500080763EB1013A92B28A8122B10023236061
:1057600002B070BD88810022EA50F7E7A80000204F
:105770002DE9F04F83B00E4601A90446FEF75AF911
:105780000546002852D1657D002D4FD1E06A0028E2
:1057900000F08B80711C4DD0E3689E4228BF1E46EE
:1057A000A661002E42D0216843688A894F8904305F
:1057B000711EB1FBF2F2B2FBF7F24BB19A4202D288
:1057C0006FE093426DD8D21A50F8083F002BF8D101
:1057D0006FF001020198E361C369023B93425AD919
:1057E0004789036B02FB0733002B54D0B0F80CE061
:1057F000B6FBFEF20EFB1266C6B1B1FBFEF17E1ED9
:105800000E40226A1E44964210D094F91430002BA8
:1058100004F13007C0F2C680394640780123324691
:10582000FEF73EF8002840F089802662284603B043
:10583000BDE8F08FA768D0F8009000F1040A4FF09F
:105840000208AFB9C845C0F800807AD91125EDE744
:1058500008F10208C14505D3534643F808BBCAF80E
:1058600004709A46019BDB69984280F0DD80074610
:105870003E464FF0000B03E0421C5FD09842E7D158
:1058800031462068FEF750FC012806F101030BF1B8
:10589000010B0646F0D802252846657503B0BDE821
:1058A000F08F436813449A1E94E7E3689E4204D93C
:1058B000227D12F0020F08BF1E460022A369A261DA
:1058C000002EB3D0019A5189B2F80C8008FB01F880
:1058D000002B3AD0013B721EB3FBF8F1B2FBF8F299
:1058E0008A4232D3C8F100021340E769A361F61A75
:1058F000002F31D046457CD9A6EB080611E0FEF713
:10590000DDFC074638B37B1C18D0012FC3D9019AA0
:10591000D3699F42BFD2B045E7616BD2A369A6EBC2
:105920000806227D4344920739462046A361E6D407
:1059300039462068FEF7F8FB0746E4E70125657560
:1059400074E70023CAF8003070E7A768002F36D04C
:105950000023E761CCE7A369019AE168994204D288
:10596000217DE36041F04001217591891046B3FB30
:10597000F1F201FB1233002B3FF458AF226A974239
:105980003FF454AF94F91430002B04F1300623DBBC
:105990003146407801233A46FDF782FF0028CDD1F9
:1059A000276243E7407839460123FDF787FF002847
:1059B000C4D1237D019803F07F0323752CE739467A
:1059C0002046FEF77BFC012807463FF464AF411CEC
:1059D000B4D0A060A369BCE7407831460123FDF74D
:1059E0006DFF0028AAD1237D019803F07F03237562
:1059F000CEE7019A9189A369B6FBF1F0334401FB2C
:105A00001066A36176B1D169BE1E02398E42BFF421
:105A100042AF5789116B06FB0717002F3FF43BAFCE
:105A200007449AE7374698E7E06A0BE730B585B058
:105A3000019160B10546002203A901A8FEF716F9FD
:105A4000044640B100232B60204605B030BD092438
:105A5000204605B030BD039B2B6001992846FEF718
:105A600081FE0446E0B995F92F30002B1EDBAB799F
:105A7000DB0619D5039A296A1078CC7E8B7E032821
:105A800043EA042314D0AB60D388AB8000212846BE
:105A9000FEF7C2FB044618B9AB6883B92C61D3E7A3
:105AA000042C08BF0524CDE70524CBE7039AEBE7D8
:105AB000487D097D41EA002143EA0143E3E72146AD
:105AC0002846FDF74BFF28610028BDD11224B9E715
:105AD00070B582B001A90446FDF7ACFF28B923696F
