:020000040800F2
:1000000000000220B93D0008253D0008273D0008FA
:10001000293D00082B3D00082D3D00080000000090
:100020000000000000000000000000002F3D00085C
:10003000313D000800000000333D0008353D000858
:10004000093E0008093E0008093E0008093E000874
:10005000093E0008093E0008093E0008093E000864
:10006000093E0008093E0008093E0008093E000854
:10007000093E0008093E0008093E0008093E000844
:10008000393D0008453D0008093E0008093E0008CA
:10009000093E0008093E0008093E0008093E000824
:1000A000093E0008093E0008093E0008093E000814
:1000B000093E0008093E0008093E0008093E000804
:1000C000093E0008093E0008093E0008093E0008F4
:1000D000093E0008093E0008093E0008093E0008E4
:1000E000093E0008093E0008093E0008093E0008D4
:1000F000093E0008093E0008093E0008093E0008C4
:10010000093E0008513D0008093E0008093E00086C
:10011000093E0008093E00085D3D0008793D0008E1
:10012000093E0008093E0008093E0008853D000818
:10013000093E0008093E0008093E0008093E000883
:10014000093E0008093E0008093E0008093E000873
:10015000093E0008913D0008093E0008093E0008DC
:10016000093E0008093E0008093E0008093E000853
:10017000093E0008093E0008093E00080000000092
:08018000093E0008093E0008D9
:1001880010B5054C237833B9044B13B10448AFF3C9
:1001980000800123237010BD18000020000000001B
:1001A800643E000808B5034B1BB103490348AFF38D
:1001B800008008BD000000001C000020643E00080C
:1001C80053B94AB9002908BF00281CBF4FF0FF31B6
:1001D8004FF0FF3000F07AB9ADF1080C6DE904CEAC
:1001E80000F006F8DDF804E0DDE9022304B070470A
:1001F8002DE9F0478C460D460446089E002B51D148
:100208008A4217466DD9B2FA82FEBEF1000F0BD0B2
:10021800CEF1200C01FA0EF520FA0CFC02FA0EF7CA
:100228004CEA050C00FA0EF44FEA174A250CBCFB01
:10023800FAF81FFA87F90AFB18CC45EA0C4508FBBF
:1002480009F3AB420AD9ED1908F1FF3280F0238196
:10025800AB4240F22081A8F102083D44ED1AA4B255
:10026800B5FBFAF00AFB105544EA054400FB09F90E
:10027800A14509D9E41900F1FF3380F00A81A145AD
:1002880040F2078102383C44A4EB090440EA0840E4
:100298000021002E61D024FA0EF40023346073602C
:1002A800BDE8F0878B4207D9002E54D0002186E89C
:1002B80021000846BDE8F087B3FA83F1002940F031
:1002C8008E80AB4202D3824200F2FA80841A65EB38
:1002D80003050120AC46002E3FD086E81010BDE88B
:1002E800F08712B90127B7FBF2F7B7FA87FEBEF11C
:1002F800000F34D1EB1B3A0C1FFA87FC0121B3FB2A
:10030800F2F8250C02FB183345EA03450CFB08F309
:10031800AB4207D9ED1908F1FF3002D2AB4200F227
:10032800D1808046ED1AA3B2B5FBF2F002FB10555E
:1003380043EA05440CFB00FCA44507D9E41900F185
:10034800FF3302D2A44500F2B8801846A4EB0C048F
:1003580040EA08409DE731463046BDE8F087CEF1D7
:10036800200405FA0EF307FA0EF720FA04F83A0CFF
:1003780025FA04F448EA0308B4FBF2F14FEA1845F9
:1003880002FB11441FFA87FC45EA044501FB0CF304
:10039800AB4200FA0EF409D9ED1901F1FF3080F0F3
:1003A8008A80AB4240F2878002393D44EB1A1FFA3B
:1003B80088F5B3FBF2F002FB103345EA034500FB76
:1003C8000CF3AB4207D9ED1900F1FF386FD2AB42FD
:1003D8006DD902383D44EB1A40EA01418FE7C1F17B
:1003E800200722FA07F88B4005FA01F448EA0303CC
:1003F80020FA07FE4FEA134CFD404EEA040EB5FB07
:10040800FCF94FEA1E440CFB19551FFA83F844EA1D
:10041800054509FB08F4AC4202FA01F200FA01FAB8
:1004280008D9ED1809F1FF3043D2AC4241D9A9F1FE
:1004380002091D442D1B1FFA8EFEB5FBFCF00CFBB8
:1004480010554EEA054400FB08F8A04507D9E41802
:1004580000F1FF3529D2A04527D902381C4440EACB
:100468000940A4EB0804A0FB02894C45C6464D464A
:1004780015D312D056B1BAEB0E0364EB050404FA97
:1004880007F7CB401F43CC40376074600021BDE8BC
:10049800F0871846F8E69046E0E6C245EAD2B8EB9F
:1004A800020E69EB03050138E4E72846D7E7404622
:1004B80091E78146BEE7014678E702383C4445E7C4
:1004C800084608E7A8F102083D442BE7704700BF3B
:1004D80038B50E4A0E4B054618784FF47A73B3FBBD
:1004E800F0F31068B0FBF3F000F0E6F9044658B9F1
:1004F8000F2D09D8024629464FF0FF3000F09AF92F
:10050800044B20461D6038BD012038BD1400002072
:10051800000000200400002008B50B4B1A6842F4C4
:1005280000721A601A6842F480621A601A6842F40B
:1005380080721A60032000F06BF90020FFF7C8FFF3
:1005480003F028FA002008BD003C0240034A044B8F
:1005580011681B780B441360704700BF6C000020C3
:1005680000000020014B1868704700BF6C00002095
:1005780038B50446FFF7F6FF631C1CBF054B1B7814
:10058800054618BFE418FFF7EDFF401B8442FAD870
:1005980038BD00BF0000002038B50446002800F030
:1005A8009B80056C25B903F011FA656484F83C500A
:1005B800236CDB0600F18E80236C23F4885323F030
:1005C800020343F002032364444B5A6822F4403286
:1005D8005A605A6861680A435A60236821695A68F0
:1005E80022F480725A605A6842EA01225A605A68B4
:1005F800A16822F040725A605A680A435A609A68A1
:10060800E16822F400629A609A680A439A60344961
:10061800A26A8A4252D0996821F0706199609968FB
:100628000A439A609A68E16A22F040529A609A688E
:100638000A439A609A68217E22F002029A609A68B8
:1006480042EA41029A6094F82020002A3ED05A6873
:10065800616A42F400625A605A6822F460425A6041
:100668005A68013942EA41325A60DA6AE16922F489
:100678007002DA62DA6A013942EA0152DA629A6889
:1006880094F8301022F400729A609A6842EA412283
:100698009A609A68616922F480629A609A68002078
:1006A80042EA81229A606064236C23F0030343F0DA
:1006B80001032364002384F83C3038BD9A6822F093
:1006C80070629A609A6822F04052B2E75A6822F43F
:1006D8000062C9E70120EDE7012038BD0023014091
:1006E8000100000FF7B50023019390F83C30012B6F
:1006F80000F083800D6804688A680123092D80F85A
:100708003C30AEB22AD906EB4603E7681E3B4FF0F1
:10071800070E0EFA03FE27EA0E07E760E76802FAFB
:1007280003F33B43E3604A68062A4FEA820325D86D
:100738001344676B591F1F238B4027EA0303636326
:10074800626B06FA01F1114361632D4B9C4234D070
:10075800002380F83C30184603B0F0BD276905EB4C
:1007680045034FF0070E0EFA03FE27EA0E0727612E
:10077800276902FA03F33B432361D4E70C2A0ED816
:100788001344216BA3F123021F23934021EA03039F
:100798002363236B06FA02F21A432263D5E7134454
:1007A800E16A413B1F229A4021EA0202E262E26AC0
:1007B80006FA03F11143E162C7E7122D04D1114A89
:1007C800536843F480035360A5F11003012BBFD88D
:1007D8000C4A5368102D43F400035360B8D10A4BF8
:1007E8000A4A1B68B3FBF2F20A2353430193019BA5
:1007F800002BADD0019B013BF8E70220ACE700BF1E
:1008080000200140002301401400002040420F0056
:10081800074AD36823F4E0631B041B0C43F0BF634F
:10082800000243F4003300F4E0600343D3607047F0
:1008380000ED00E0174B30B5DC68C4F30224C4F1C6
:100848000703251D042B28BF0423062D4FF001059F
:1008580005FA03F303F1FF338CBF033C002419406E
:10086800A14005FA04F4013C2240002842EA0102B2
:100878004FEA0212ADBF00F1604000F00F00064BD6
:1008880000F56140B5BFD2B2D2B21A5480F8002345
:1008980030BD00BF00ED00E014ED00E0002808DBEB
:1008A8004209012300F01F0003FA00F0014B43F84E
:1008B8002200704700E100E00138B0F1807F0AD2E1
:1008C800064B074A5860F02182F8231000200722BF
:1008D80098601A6070470120704700BF10E000E080
:1008E80000ED00E010B5044668B1037903F0FF029B
:1008F80013B9427103F09CF80223237100200123ED
:100908002061237110BD012010BD0000F8B5054617
:10091800407901280E464FF002001146069A4CD045
:1009280001246C7128712C68E6B9A868234FC76345
:10093800234F0764234FC7642768042A47F4805766
:10094800276009D0082A0AD0002A34D104F1080205
:10095800276847F400571AE004F10C02F8E704F19D
:100968001002F5E7E868184FC763184F0764184F77
:10097800C7642768042A47F08057276013D0082ADD
:1009880014D0B2B904F11402276847F00057276061
:1009980000F03AF92B6801211A68B1401143002090
:1009A80019606871F8BD04F11802EDE704F11C0242
:1009B800EAE70022E8E73246CAE7F8BDDF0900089F
:1009C800F1090008FD090008B70A0008C70A00086D
:1009D800D10A0008704710B5846B2046FFF7FAFF6C
:1009E8000123237110BD704708B5806BFFF7FBFF2B
:1009F80008BD704710B5846B236943F00403236175
:100A08002046FFF7F6FF0123237110BD70470368E6
:100A18005A6B910410B504460ED50422027102697E
:100A280042F0010202614FF400525A631A6822F43C
:100A380080521A60FFF7EAFF23685A6B920011D5BB
:100A480004222271226942F0020222614FF0005210
:100A58005A631A6822F0805220461A60BDE8104096
:100A680000F024B810BD4379012B30B54FF00203D4
:100A780017D004680371236840F6FE75954023EA91
:100A880005050AC90B4393402B4323602368C02103
:100A980001FA02F223EA0202012322600371002311
:100AA8004371184630BD704770477047704710B59E
:100AB800846B2046FFF7F7FF0123237110BD08B5AB
:100AC800806BFFF7F1FF08BD10B5846B236943F015
:100AD800040323612046FFF7E8FF0123237110BDBB
:100AE8000368DAB223F47F7323F003031821103A62
:100AF800B2FBF1F20449032A88BF0433895C836599
:100B0800C165806D704700BF7C3E000870B5044623
:100B1800FFF728FD0546002C71D0002384F83430F7
:100B28002268022384F83530136823F00103136028
:100B380021680B68D8073CD40B68324D6268A069FD
:100B48001D40A3681343E268134322691343626993
:100B58001343E26903431343226A1343626A042A74
:100B680043EA050301BF266BE56A35432B430B6057
:100B78004B69042A23F0070343EA02030BD1A26A54
:100B8800E56A13433DB1F8B9012A2DD001D3022AF1
:100B980001D1EA012BD44B612046FFF7A1FFE26D9A
:100BA8003F239340836000200123606584F835303B
:100BB80070BDFFF7D7FC401B0528B9D92023636512
:100BC800032084F8350070BDB0F5005F13D1032A07
:100BD800E1D801A050F822F0F70B00089B0B0008A1
:100BE800F70B0008F10B0008B5F1C07FD3D1402303
:100BF80063650120E5E7022AF9D9032AC8E701203D
:100C080070BD00BF3F8010F070B590F83440012CE3
:100C180032D0012480F8344090F83540866D012C9C
:100C28004FF000054FF0020424D180F835400468E5
:100C38004565256825F48025256063608368402B19
:100C48000EBFA260A160E260C26D08BFE1603F23F1
:100C58009340B360236843F016032360036C1BB111
:100C6800236843F008032360236843F001032360EB
:100C7800002070BD80F83450022070BD90F83530E7
:100C8800022B03D0802343650120704702680523A7
:100C980080F83530136823F0010313600020704793
:100CA800F7B5002301935A4B856D1F68C36D2E68F5
:100CB80008229A40164204460CD00168086840078A
:100CC80008D5086820F004000860AA60626D42F048
:100CD8000102626501229A40164208D021684969DA
:100CE800090641BFAA60626D42F0020262650422F1
:100CF8009A40164208D021680968880741BFAA604F
:100D0800626D42F00402626510229A40164210D0C9
:100D18002368196809070CD5AA601A68500335D5E5
:100D28001B68190301D4236C00E0A36C0BB12046A7
:100D38009847E16D20228A40164238D02368186807
:100D4800C60634D5AA6094F83520052A1A6825D134
:100D580022F016021A605A6922F080025A61226C47
:100D68000AB9A26C1AB11A6822F008021A603F2365
:100D78008B40AB60002384F83430012384F835308D
:100D8800236D0BB12046984703B0F0BD1A68D20511
:100D98005EBF1A6822F008021A60C4E7500328D51B
:100DA8001B68190332D4636C0BB120469847636DF6
:100DB800002BE9D0636DDA0719D50523226884F87A
:100DC8003530136823F0010313604FF41653B7FB53
:100DD800F3F7019B01339F42019302D31368DB07AA
:100DE800F7D4002384F83430012384F83530E36CD9
:100DF800C7E71A6812F4807208D1196821F0100147
:100E08001960012384F8342084F83530E36BCBE78C
:100E1800140000202DE9F04F85B00B68DFF8AC8195
:100E2800684ADFF8AC91019300230124019D9C409E
:100E38002540AC4240F0B0804C6824F0100C0CF116
:100E4800FF36012E4FEA430E12D88768032606FAAA
:100E58000EF627EA0607CE6806FA0EF63E438660C7
:100E68004768C4F3001627EA05079E403E434660DC
:100E78000326C76806FA0EF6F64307EA060A8F68DD
:100E880007FA0EF747EA0A07BCF1020FC76016D146
:100E98004FEAD30A00EB8A0A03F0070BDAF820704E
:100EA8004FEA8B0B4FF00F0C0CFA0BFC27EA0C0CDB
:100EB8000F6907FA0BF747EA0C07CAF820700768AA
:100EC8003E4004F0030707FA0EFE4EEA06060660E7
:100ED800E60061D54FF0000BCDF80CB0D8F844709F
:100EE800394E47F48047C8F84470D8F8447007F47E
:100EF80080470397039F23F0030707F1804707F50F
:100F08009C3703F0030CD7F808A04FEA8C0C4FF07D
:100F18000F0E0EFA0CFEB0422AEA0E0E43D006F56A
:100F28008066B04241D006F58066B0423FD006F5F3
:100F38008066B0423DD006F58066B0423BD0484559
:100F48003BD006F50066B04239D006F58066B0425F
:100F580014BF0826072606FA0CF646EA0E06BE60F7
:100F68001668EF4314F4803F0CBF3E402E431660D2
:100F7800566814F4003F0CBF3E402E4356609668F6
:100F880014F4801F0CBF3E402E439660D668A4021E
:100F980054BF3E402E43D6600133102B7FF445AF3B
:100FA80005B0BDE8F08F5E46D5E70126D3E70226F7
:100FB800D1E70326CFE70426CDE70526CBE70626AB
:100FC800C9E700BF003C0140000002400038024071
:100FD800001402402DE9F341044608B901203FE01E
:100FE8000368DD0710D4236898075AD423681A07C2
:100FF80000F19C8023685B0700F1BA80A069002893
:1010080040F01B8100202BE0A44B9A6802F00C02F0
:10101800042A07D09A6802F00C02082A0AD15B68F1
:10102800590207D59D4B1B689A03DCD56368002BD2
:10103800D9D1D3E76368994DB3F5803F13D12B68B5
:1010480043F480332B60FFF78DFA944D06462B68E6
:101058009B03C8D4FFF786FA801B6428F7D90320BE
:1010680002B0BDE8F081B3F5A02F04D12B6843F49A
:1010780080232B60E3E72A6822F480322A602A68FA
:1010880022F480222A60002BDDD1FFF76BFA064696
:101098002B689F03A7D5FFF765FA801B6428F7D94B
:1010A800DDE77E4B9A6812F00C0F07D09A6802F0C1
:1010B8000C02082A11D15B685E020ED4774B1A68BD
:1010C800950702D5E268012A88D11A68216922F0B9
:1010D800F80242EAC1021A6088E7E268704BB2B1CE
:1010E80001221A60FFF73EFA6C4D06462B689807F6
:1010F80007D52B68226923F0F80343EAC2032B6063
:1011080074E7FFF72FFA801B0228EFD9A7E71A60C8
:10111800FFF728FA614D06462B6899077FF566AFF9
:10112800FFF720FA801B0228F6D998E762695D4B21
:101138007AB101221A60FFF715FA584D06466B6F0F
:101148009F073FF557AFFFF70DFA801B0228F6D926
:1011580085E71A60FFF706FA504D06466B6F980749
:101168007FF548AFFFF7FEF9801B0228F6D976E72E
:101178004A4B1A6C12F0805228D101921A6C42F034
:1011880080521A641B6C03F080530193019B012663
:10119800454D2B68D9051BD5A368404D012B27D198
:1011A8002B6F43F001032B67FFF7DCF93B4D074634
:1011B80041F288382B6F9B0739D5002E3FF41EAFBC
:1011C800364A136C23F08053136417E70026DFE7D1
:1011D8002B6843F480732B60FFF7C4F907462B682C
:1011E800DA05D9D4FFF7BEF9C01B0228F7D936E7CC
:1011F800052B04D12B6F43F004032B67D0E72A6F2C
:1012080022F001022A672A6F22F004022A67002BC3
:10121800CAD1FFF7A7F941F2883807462B6F98071C
:10122800CBD5FFF79FF9C01B4045F7D917E7FFF764
:1012380099F9C01B4045BDD911E7184DAB6803F0BB
:101248000C03082B47D0194E00230228336035D1F0
:10125800FFF788F907462B68990129D4226AE369C0
:101268001343626A43EA8213E26A43EA0263A26AA8
:101278000A4C5208013A43EA02436B600123336087
:10128800FFF770F9054623689A013FF5BBAEFFF7F3
:1012980069F9401B0228F6D9E1E600BF0038024090
:1012A80000004742800E47420070004060004742FD
:1012B800FFF758F9C01B0228CDD9D0E6FFF752F93D
:1012C80004462B689B017FF59DAEFFF74BF9001B89
:1012D8000228F6D9C3E601283FF4C2AEA868E3693C
:1012E80000F480029A427FF479AE226A00F03F034C
:1012F80093427FF473AE626A47F6C0730340934229
:101308007FF46CAEA26A00F4403393427FF466AE79
:10131800E36A00F07060C01A18BF0120A0E600BFA1
:10132800134908B58B6803F00C03042B03D0082B72
:1013380003D0104808BD104808BD4A684B68496882
:1013480013F4800314BF0C480A48C1F3881118BF6E
:10135800002302F03F02A1FB0001FEF731FF044B1E
:101368005B68C3F3014301335B00B0FBF3F008BDD6
:10137800003802400024F40040787D012DE9F04156
:101388000D46044610B90120BDE8F081444B1A68A7
:1013980002F00F028A4229D321688F072ED4C8078A
:1013A80041D43F4B1A6802F00F02954267D3226876
:1013B80051076DD4130707D53A4A2169936823F476
:1013C800604343EAC1039360FFF7AAFF354B364AEF
:1013D8009B68C3F30313D35CD840344B1860344B79
:1013E8001868FFF775F80020BDE8F081CAB21A70D6
:1013F8001B6803F00F039942C5D1CDE7294B11F0C3
:10140800040F1EBF9A6842F4E0529A600E0742BF6A
:101418009A6842F460429A609A68A06822F0F002E2
:1014280002439A60BBE762681E4B012A1DD11B6804
:1014380013F4003FA7D01B4EB36823F003031343F4
:10144800B360FFF78FF841F288380746B3686268DF
:1014580003F00C03B3EB820FA3D0FFF783F8C01B94
:101468004045F3D90320BDE8F081911E01291B688E
:1014780002D813F0007FDDE713F0020FDAE7EAB2D3
:101488001A701B6803F00F039D427FF47CAF8EE750
:101498000449E0688B6823F4E05303438B6089E7D1
:1014A800003C024000380240983E0008140000202A
:1014B8000400002010B5044690B1437903F0FF0200
:1014C80013B9027102F028FB2268022363711368C2
:1014D80043F004031360002001236371A06010BD72
:1014E800012010BD2DE9F04389B005460E46FFF7EF
:1014F80039F800238146082128680093019301F0F8
:10150800C0F8044640BB296D2868090401F0CAF9EF
:10151800044608BB4FF0FF3302930823039330239C
:101528000493022305930690012302A928680793D0
:1015380001F094F8286801F0E6F9044660B9074616
:1015480040F22A482868436B13EA080F436B07D018
:10155800190718D508248463204609B0BDE8F0832C
:101568009B0207D501F050F808AB03EB870301375E
:1015780043F8200CFEF7F6FFA0EB09000130E1D19B
:101588004FF00044E8E7436B9A0701D50224E2E7ED
:10159800436B9B0601D52024DDE740F23A53836371
:1015A800019B1BBA3360009B1BBA7360D4E7000031
:1015B8002DE9F04F87B004460D4616469946FEF7CA
:1015C800D1FF07462DB9A36B43F00063A363012045
:1015D80010E094F83400C0B2012840F0F580E26DC4
:1015E80006EB090300219342A16306D9A36B43F0DC
:1015F8000073A36307B0BDE8F08F032384F8343089
:101608002068636CC162012B4FF4007118BF760229
:1016180001F037F848B123686D4A9A63A36B184301
:10162800A063012084F83400E4E74FF0FF3300930F
:101638004FEA49230193049090234FF0010A4FF099
:10164800020B694620680293CDF80CB0CDF814A0BF
:1016580001F004F8D14512D9C4F830B031462068F9
:1016680001F03FF890B12368594A9A63A36B184375
:10167800A0630120002384F834002363BAE7C4F888
:1016880030A03146206801F014F8EBE7DDF804A03B
:1016980040F22A3B2068436B13EA0B0F436B17D0C9
:1016A800DE0509D5B9F1010F06D9636C032B03D008
:1016B80001F060F80028D6D12368596B11F00801B1
:1016C80036D0434A9A63A36B43F00803A363D0E779
:1016D8001B0419D5BAF1000F16D02E1D05F12408E8
:1016E800206800F091FF020A06F8040C06F8032CA3
:1016F800020C000E06F8022C06F8010C04364645CA
:10170800EED12035AAF1200AFEF72CFF109BC01B52
:101718009842BFD323682E4A9A63A36B43F00043D1
:10172800A363012384F8343000232363032061E793
:101738005A6B12F002020AD0254A9A63A36B012061
:1017480043F00203A36384F83400216352E7596B22
:1017580089060AD51E499963A36B012043F020032B
:10176800A36384F83400226344E72E1D0AF1040AB7
:101778002068436B9B0207D440F23A5383630123EA
:1017880084F83430002035E7AAEB0603DD42F3D0B5
:1017980000F03AFF030A06F8040C06F8033C030CB1
:1017A800000E06F8023C06F8010CFEF7DBFE109B63
:1017B800C01B834206F10406DAD82368044A9A63F8
:1017C800A36B43F0004381E7A36B43F00053FDE6AE
:1017D800FF0540002DE9F04F89B004460E469146BA
:1017E8001F46FEF7BFFE80462EB9A36B43F0006389
:1017F800A363012010E094F83400C0B2012840F03F
:10180800B980E26D09EB070300219342A16306D971
:10181800A36B43F00073A36309B0BDE8F08F032303
:1018280084F834302068636CC162012B4FF4007176
:1018380018BF4FEA492900F024FF48B123684F4AEE
:101848009A63A36B1843A063012084F83400E3E78C
:101858004FF0FF3302937B02039390230493059088
:101868000690012302A92068079300F0F7FE012FD4
:1018780012D9202323634946206800F062FF90B103
:1018880023683E4A9A63A36B1843A0630120002390
:1018980084F834002363BFE7102323634946206894
:1018A80000F037FFEBE7039D40F21A3A2068436BDC
:1018B80013EA0A0F436B16D0DB0508D5012F06D9AA
:1018C800636C032B03D000F055FF0028D8D12368A0
:1018D800596B11F0080128D0284A9A63A36B43F08A
:1018E8000803A363D2E75A040CD55DB106F1200BB7
:1018F80056F8043B2068019301A900F088FEB3451F
:10190800F6D1203DFEF72EFE129BA0EB0800984270
:10191800CCD32368194A9A63A36BA363012384F881
:10192800343000232363032076E75A6B12F0020257
:101938000AD0124A9A63A36B012043F00203A363FF
:1019480084F83400216367E7586B10F010000AD060
:101958000A499963A36B012043F01003A36384F839
:101968003400226358E740F23A529A63012384F81C
:10197800343051E7A36B43F0005339E7FF054000CB
:1019880070470000436E9A0F0A70C3F383624A706F
:10199800C3F301628A70C3F30742CA70C3F3072214
:1019A800DBB20A714B71836E1A0DCA80C3F303420E
:1019B8000A72C3F3C0324A72C3F380328A72C3F325
:1019C8004032CA72C3F300320A7300224A73426C6F
:1019D80010B5002A6BD1C26E40F6FC7404EA83038A
:1019E80043EA92730B61C2F3C2630B75C2F30263DD
:1019F8004B75C2F342538B75C2F38243C2F3C232B2
:101A0800CB750A760B690A7E02F0070202320133AF
:101A1800934043650A7A02F00F040122A2408265CE
:101A2800520A5343C3654FF400730366C36EC3F38E
:101A380080324A76C3F3C61203F07F038A76CB76E8
:101A4800036FDA0F0A77C3F341724A77C3F38262EE
:101A58008A77C3F38352CA77C3F3405281F82020B0
:101A68000020C3F3004281F8210081F82220C3F34B
:101A7800C03281F82320C3F3803281F82420C3F3D5
:101A8800403281F82520C3F3003281F82620C3F3C1
:101A9800812281F82720C3F30122C3F3460381F88A
:101AA800282081F82930012381F82A3010BD012A25
:101AB8000FD1B0F86E201B0403F47C1313430B61A1
:101AC8000B6901339B024365C3654FF4007383655B
:101AD800ABE70368054A9A63836B43F080538363DB
:101AE800012380F83430184610BD00BFFF054000C0
:101AF8002DE9F04198B000230793089309930A93BE
:101B08000B9376230C930AAB044693E807008DE801
:101B1800070007AB0ECB206800F05AFD05460028E9
:101B280040F08E806E4F01263860206800F074FD0A
:101B38003E602068069500F04FFE0546002879D1E2
:101B4800206800F071FE30B1A564206800F044FE02
:101B580010B105466EE0A664A36C012B62D04FF667
:101B6800FE76DFF8808100213746069BB34269D9AB
:101B7800069BBB4200F2AA8015F080454FF0010396
:101B880018BF1D4665642068ADF8163000F04CFD9E
:101B9800002800F09E80636C032B19D0206800F0A9
:101BA800CAFE00286DD10146206800F054FD0421CA
:101BB8006067206800F04FFD0821A067206800F0EA
:101BC8004AFD0C21E067206800F045FDC4F880005C
:101BD800636C032B4ED1636C032B59D1042120680D
:101BE80000F039FD000DE0640DA92046FFF7CAFE9C
:101BF8000546002870D1226D03461204206800F0C3
:101C0800D3FD00283DD104F1100393E807008DE8C7
:101C18000700231D0ECB206800F0DAFC284618B018
:101C2800BDE8F0810021206800F03CFE002896D035
:101C38004FF08055012384F83430A26B1543A56317
:101C48000125EBE7002993D1206800F02BFE05461B
:101C58000028EFD14146206800F03CFE0028E7D17B
:101C68002946206800F0F7FC069B013305460693D9
:101C7800C10F7AE70DF11601206800F087FE0028F1
:101C8800A9D0012584F83450A16B0843A063C5E7A7
:101C9800BDF8161021652068090400F061FE0028CF
:101CA800EFD10146206800F0D6FC04216066206868
:101CB80000F0D1FC0821A066206800F0CCFC0C21C3
:101CC800E066206800F0C7FC206787E74FF0807562
:101CD800B0E74FF08060D4E74FF08050D1E700BF05
:101CE800A0802542000010C110B5044608B90120A3
:101CF80010BD90F8343003F0FF0213B9027701F0F9
:101D080023FF032384F834302046FFF7F1FE002830
:101D1800EDD10123A063206384F8343010BD436CF7
:101D28000B60836C4B60C36C8B60036DCB60436D41
:101D38000B61836D4B61C36D8B61036ECB610020BA
:101D48007047000070B5032380F83430436C032BD0
:101D58008AB004460E4602D0B1F5805F03D1A36B6A
:101D680043F0805355E0B1F5006F2CD10021006895
:101D78000491059100F06FFC80011FD404A920464E
:101D8800FFF7B0FB60B9059B590319D5216D206891
:101D9800090400F087FD18B90221206800F076FEDA
:101DA800A36B1843A063A56B002D34D02368274A82
:101DB8009A63012084F834000AB070BD3046EFE71A
:101DC8004FF08060ECE709BB00680491059100F0D2
:101DD80042FC820114D404A92046FFF783FB60B9B2
:101DE800059BDB030FD5216D2068090400F05AFD1F
:101DF80018B90146206800F049FEA16B0843D1E7F5
:101E08004FF40060F9E74FF08060F6E7836B43F02A
:101E18000063A363C7E763680493A3680593E36853
:101E2800069363690893A369099307960AAB13E9B4
:101E380007008DE8070004AB0ECB206800F0C8FB54
:101E4800012384F834302846B6E700BFFF05400078
:101E5800016D10B509040446006800F0E7FD01466D
:101E680028B9206800F0F7FBC0F3432010BDA36B2E
:101E78001943A1630020F7E710B5846B236840F28B
:101E88003A529A632046FFF7E3FF0123053884F8A6
:101E9800343001284FF00003236305D8206800F090
:101EA80069FCA36B1843A063A36B204613B901F028
:101EB80026F910BDFFF764FD10BD00002DE9F341C0
:101EC800056B04460068436B1A041FD52B071DD504
:101ED800E76AC7B1A66A351D06F12408206800F034
:101EE80093FB030A05F8040C05F8033C030C000EE9
:101EF80005F8023C05F8010C04354545EED12036BD
:101F0800203FA662E76202B0BDE8F081436BDF05BF
:101F180045D54FF480738363C36B23F4434323F0A5
:101F28003A03C363C36A2E0723F00103C3621BD5B8
:101F380015F0220F08D000F01DFC28B1A36B184340
:101F4800A0632046FFF71CFD236840F23A529A63CB
:101F5800012384F83430A9074FF000032363204697
:101F68001AD001F0D6F8CEE72A06CCD5AB0608D5AC
:101F780000F000FC28B1A36B1843A0632046FFF7CC
:101F8800FFFCAF07BFD12268D36A23F00803D362EE
:101F9800012384F83430204601F0B6F8B3E7436BE8
:101FA8005E0426D5290724D5676A002FABD0266A98
:101FB800351D06F1240815F8043C019315F8032C87
:101FC800206843EA0223019315F8022C43EA0243EE
:101FD800019315F8012C01A943EA02630435019322
:101FE80000F015FB4545E6D12036203F26626762A2
:101FF80089E7426B40F23A231A4284D0436B9A072E
:1020080042BFA36B43F00203A363436B1B0742BFAA
:10201800A36B43F00803A363436B9F0642BFA36B04
:1020280043F02003A363436BDE0642BFA36B43F078
:102038001003A363436B990542BFA36B43F00803E6
:10204800A36340F23A738363C36B23F44E7323F0A4
:102058000203C36300F08EFBA36B2A0740EA030068
:10206800A06308D5012384F8343000232363204675
:10207800FFF786FC47E72B067FF545AF15F0300FD5
:102088000BD0E06B104B0365FEF7F8FD00283FF41A
:102098003AAFE06BFFF7F0FE35E715F0030509D01E
:1020A800206C0A4B0365FEF7E9FD00283FF42BAFCF
:1020B800206CEFE70123A563204684F834302563BC
:1020C80001F01DF81FE700BFD9200008811E000895
:1020D800FFF7D2BE022380F83D300368196A41F247
:1020E8001112114208D1196A40F24442114202BF4A
:1020F8001A6822F001021A60012380F83D3000209E
:1021080070470368DA6842F00102DA609A6802F000
:102118000702062A1EBF1A6842F001021A60002050
:1021280070470368DA6822F00102DA60196A41F23E
:102138001112114208D1196A40F24442114202BFF9
:102148001A6822F001021A60002070477047704731
:102158007047704703681A69910710B504460ED591
:10216800DA6892070BD56FF002021A619B690122A7
:102178009B07027777D0FFF7EAFF002323772368CE
:102188001A69500710D5DA6851070DD56FF00402A7
:102198001A619B69022213F4407F2277204668D097
:1021A800FFF7D5FF0023237723681A6912070FD595
:1021B800DA6810070CD56FF008021A61DB6904228F
:1021C8009907227720465AD0FFF7C1FF00232377CB
:1021D80023681A69D20610D5DA68D0060DD56FF0D3
:1021E80010021A61DB69082213F4407F2277204627
:1021F8004BD0FFF7ACFF0023237723681A69D10778
:1022080008D5DA68D20705D56FF001021A612046B1
:1022180001F064F923681A69100608D5DA6811060E
:1022280005D56FF080021A61204600F0F8F823689F
:102238001A69520608D5DA68500605D56FF04002CB
:102248001A612046FFF785FF23681A69910622D58F
:10225800DA6892061FD56FF0200220461A61BDE8A1
:10226800104000F0DBB8FFF771FF2046FFF770FF62
:1022780083E7FFF76BFF2046FFF76AFF92E7FFF758
:1022880065FF2046FFF764FFA0E7FFF75FFF2046E2
:10229800FFF75EFFAFE710BD304A0368904212D0E7
:1022A800B0F1804F0FD0A2F57C4290420BD002F5DE
:1022B8008062904207D002F58062904203D002F516
:1022C8007842904219D14A6823F070031343234A95
:1022D800904229D0B0F1804F26D0A2F57C4290429E
:1022E80022D002F5806290421ED002F580629042B0
:1022F8001AD002F57842904216D0194A904213D06B
:1023080002F5806290420FD002F5806290420BD0B5
:10231800A2F59832904207D002F58062904203D02D
:1023280002F58062904203D1CA6823F440731343D4
:102338004A6923F08003134303608B68C3620B6808
:102348008362064B984203D003F58063984201D11B
:102358000B69036301234361704700BF000001401C
:102368000040014010B50446A0B190F83D3003F09C
:10237800FF021BB980F83C2001F09AFC022384F884
:102388003D302068211DFFF787FF012384F83D3089
:10239800002010BD012010BD90F83C30012B30B555
:1023A8004FF0020335D080F83D3003680D685C6853
:1023B80024F0700401222C4380F83C209A685C6069
:1023C800154CA3421AD0B3F1804F17D0A4F57C4422
:1023D800A34213D004F58064A3420FD004F58064AF
:1023E800A3420BD004F57844A34207D004F57054F7
:1023F800A34203D0A4F59434A34204D1496822F03F
:1024080080020A439A60012380F83D30002380F857
:102418003C30184630BD00BF00000140704770478F
:10242800124B4FF4FA521B68B3FBF2F241F28833B5
:10243800534313F1FF3315D3426B12F0450FF8D015
:102448001205F6D4436B5B0703D504238363184650
:102458007047436B13F0010301D00123F6E7C5224F
:102468008263F4E74FF00043F1E700BF1400002057
:102478000F4B4FF4FA521B68B3FBF2F241F2883368
:10248800534313F1FF330FD3426B12F0450FF8D0CB
:102498001205F6D4436B13F0040315BF0423C522B9
:1024A80083638263184670474FF00040704700BF4F
:1024B80014000020444B10B51B684FF4FA54B3FBCA
:1024C800F4F35A43002A4AD0436B13F0450F08D05F
:1024D8001C0506D4436B5B0705D5042383631846A4
:1024E80010BD013AEEE7436BDC0703D50123836394
:1024F800012010BDC52383630369DBB29942F7D17C
:1025080043693248184000285CD0002B2ADB5A0067
:102518002BD49C002BD4D9002BD41A012CD45C01C9
:102528002DD4D9012ED41A022FD45C0230D49902AA
:1025380031D4DA0232D45C0333D4990334D4DA03C5
:1025480035D41C0436D4590437D49A0438D413F03B
:10255800080F0CBF4FF480304FF4000010BD4FF04F
:10256800004010BD4FF0007010BD402010BD80200D
:1025780010BD4FF4807010BD4FF4007010BD4FF4C3
:10258800806010BD4FF4006010BD4FF4805010BD46
:102598004FF4005010BD4FF4804010BD4FF4004080
:1025A80010BD4FF4003010BD4FF4802010BD4FF423
:1025B800002010BD4FF4801010BD4FF4001010BD66
:1025C8004FF4800010BD00BF1400002008E0FFFD9C
:1025D80084B010B503AC84E80E000499039B4268EC
:1025E8000B4305990B4306990B4307990B4308992D
:1025F800BDE8104022F4FD420B4322F07F02134352
:10260800436004B000207047D0F8800070470B6822
:10261800C0F880300020704708B50323036002200B
:10262800FDF7A6FF002008BD006800F00300704712
:102638000B6810B583608C684B68C2682343CC680C
:102648000969234322F47F620B4322F00F021343EC
:10265800C360002010BD1430405870470B6810B597
:1026680043624B688362CC688B68C26A23430C69F7
:10267800496923430B4322F0F7021343C362002046
:1026880010BD30B587B04023039300230546019160
:102698001024049301A94FF4806305930294FFF773
:1026A800C7FF41F2883221462846FFF703FF07B0EB
:1026B80030BD30B587B04023039300230546019110
:1026C8001124049301A94FF4806305930294FFF742
:1026D800AFFF41F2883221462846FFF7EBFE07B0EC
:1026E80030BD30B587B040230393002305460191E0
:1026F8001224049301A94FF4806305930294FFF711
:1027080097FF41F2883221462846FFF7D3FE07B0EB
:1027180030BD30B587B040230393002305460191AF
:102728001824049301A94FF4806305930294FFF7DA
:102738007FFF41F2883221462846FFF7BBFE07B0EB
:1027480030BD30B587B0402303930023054601917F
:102758001924049301A94FF4806305930294FFF7A9
:1027680067FF41F2883221462846FFF7A3FE07B0EB
:1027780030BD000030B587B00023054601930C2416
:102788004022049301A94FF48063039205930294B5
:10279800FFF74EFF034A21462846FFF78BFE07B096
:1027A80030BD00BF00E1F50530B587B04023039385
:1027B800002305460724049301A94FF4806301927E
:1027C80005930294FFF734FF41F2883221462846E8
:1027D800FFF770FE07B030BD10B586B00023019337
:1027E80002930393049301A94FF48063059304466D
:1027F800FFF71EFF0B4B4FF4FA521B68B3FBF2F2C4
:1028080041F28833534313F1FF3307D3626B120647
:10281800F9D5C523A363002006B010BD4FF00040D2
:10282800FAE700BF1400002010B586B04FF4D57346
:10283800019308230293402303930023049301A9DF
:102848004FF4806305930446FFF7F2FE144B4FF4F0
:10285800FA521B68B3FBF2F241F28833534313F187
:10286800FF331AD3626B12F0450FF8D01205F6D475
:10287800636B5B0703D50420A06306B010BD626BD1
:1028880012F0010201D00120F6E7606B10F0400061
:10289800F3D04023A3631046EFE74FF00040ECE786
:1028A8001400002030B587B0402303930023054669
:1028B80001913724049301A94FF48063059302948E
:1028C800FFF7B6FE41F2883221462846FFF7F2FDAF
:1028D80007B030BD10B586B02923029341F00041FE
:1028E8004023039341F4801100230446019104938B
:1028F80001A94FF480630593FFF79AFE2046FFF77E
:10290800B7FD06B010BD30B587B00023054601936A
:1029180033244022049301A94FF480630392059362
:102928000294FFF785FE41F2883221462846FFF7D8
:10293800C1FD07B030BD10B586B0002302220446A1
:10294800019302920493C0224FF4806301A9039279
:102958000593FFF76DFE2046FFF762FD06B010BD38
:1029680010B586B009230293C023039300230446BD
:102978000191049301A94FF480630593FFF758FE72
:102988002046FFF74DFD06B010BD000030B587B0FA
:102998000023032201930292049340224FF48063A0
:1029A8000D4601A9039205930446FFF741FE1E4B0D
:1029B8004FF4FA521B68B3FBF2F241F288335343E7
:1029C80013F1FF3328D3626B12F0450FF8D01205CC
:1029D800F6D4636B580703D50420A06307B030BD55
:1029E800636BD90701D50120F7E72369DBB2032B15
:1029F80015D1C523A363636913F4604002D11B0C8E
:102A08002B80EBE75A040CD413F4004F0CBF4FF49F
:102A180080304FF48050E1E74FF00040DEE70120BE
:102A2800DCE74FF40050D9E71400002030B587B038
:102A3800402303930023054601910D24049301A923
:102A48004FF4806305930294FFF7F2FD41F2883258
:102A580021462846FFF72EFD07B030BD30B587B0B8
:102A6800402303930023054601910624049301A9FA
:102A78004FF4806305930294FFF7DAFD41F2883240
:102A880021462846FFF716FD07B030BDFFF7E6BF21
:102A9800034B1A1803EB8003107A5B685B681847CE
:102AA8005400002030B4054C251804EB80046068FD
:102AB8008468287AA44630BC604700BF54000020D0
:102AC80030B4054C251804EB80046068C468287A83
:102AD800A44630BC604700BF54000020054B10B42A
:102AE8001C1803EB8003207A5B685DF8044B1B69B4
:102AF800184700BF5400002042884378007843EA12
:102B0800022340EA032070470B0A017043700B0C44
:102B1800090E8370C1707047024400F8011B90428F
:102B2800FBD17047013801280ED8094A0301D11892
:102B3800898921F4807080B208B1481E80B2D1180A
:102B4800888118B9D050704702207047002070471C
:102B580034000020C3690239023B99423DBF4389D2
:102B6800006B01FB030000207047C26A10B50468BF
:102B78000432A389B1FBF3F16389B1FBF3F1106867
:102B880030B1814202D3091A0832F8E75068084484
:102B980010BD38B50D46044618B9092000232B602E
:102BA80038BD0368002BF8D01A78002AF5D0818840
:102BB800DA889142F1D15878FFF76AFF10F00100E6
:102BC800EBD12368EBE701380A4411F8013B00F820
:102BD800013F9142F9D17047C2F307238A76CB7639
:102BE8000378032B01BF120C0A75120A4A75704745
:102BF800F8B5456B00F13807044601232A463946E3
:102C08004078FFF75DFFA0B9A36A226AE070EB1A6B
:102C1800934201D30020F8BDA678012EFAD9236A81
:102C280060781D442A4601233946FFF749FF013ED3
:102C3800F3E70120F8BDC3780BB1FFF7D9BF1846F9
:102C48007047F8B50446FFF7F6FF0546002841D15E
:102C58002378032B36D12779012F33D104F1380695
:102C68000146A2893046FFF757FF552384F83632CC
:102C7800AA2384F8373252234122722184F838304B
:102C880084F83930612384F83A3084F83B2084F89A
:102C98001E2284F81F3284F81C1284F81D1204F5D1
:102CA8000870A169FFF730FF616904F50970FFF743
:102CB8002BFF626A6078013262633B463146FFF758
:102CC800FFFE2571002211466078FFF707FF0030EC
:102CD80018BF0120F8BD436B8B4270B506460D4600
:102CE80012D0FFF7A8FF044660B92A46012306F16F
:102CF80038017078FFF7D6FE00281CBF4FF0FF356B
:102D080001247563204670BD0024FBE70129F8B54E
:102D180004460E4668D9C369994265D20378022BE6
:102D280032D0032B48D0012B5ED101EB5105816ACB
:102D38008389B5FBF3F31944FFF7CDFF10B14FF0CA
:102D4800FF30F8BDA189A36AB5FBF1F201FB12526D
:102D580022446F1C2046B7FBF1F1194492F8385011
:102D6800FFF7B9FF0028EAD1A289B7FBF2F302FB0B
:102D780013731C44F30794F8380045EA00204CBF4D
:102D88000009C0F30B00F8BD83895B08B1FBF3F3BE
:102D9800816A1944FFF79FFF0028D0D1A1897600E6
:102DA80004F13802B6FBF1F301FB13669319905D49
:102DB8005B7840EA0320F8BD83899B08B1FBF3F3F5
:102DC800816A1944FFF787FF0028B8D1A289B600A5
:102DD80004F13800B6FBF2F302FB13663044FFF748
:102DE8008BFE20F07040F8BD0120F8BD2DE9F04FB2
:102DF8009B4685B000238946CBF8003003A90446DA
:102E08001746FFF7C6FE054618BB657D0DBB237D3B
:102E1800DA0740F1A880E368A6699E1BBE4204F168
:102E2800300328BF3E4600939EB10398A169838969
:102E3800B1FBF3F203FB1213002B7DD14389013B55
:102E48001340019319D141B9A068012810D802256F
:102E58006575284605B0BDE8F08FE36A1BB12046CA
:102E6800FFF783FEF1E7E1692068FFF74FFFECE722
:102E7800431C01D10125EBE7E061DDF80CA0E16915
:102E88005046FFF767FE0028E1D0019BBAF80C8096
:102E9800B6FBF8F81F18B8F1000F30D0019ABAF84D
:102EA8000A309AF8010042449A4284BF019AA3EB7F
:102EB800020843463A464946FFF7F4FD0028D9D1AF
:102EC80094F91430002B0BDA206AC01B804507D90F
:102ED800039B9A8922B1009902FB0090FFF773FEC9
:102EE800039B9F8908FB07F7A3693B44A361DBF8B1
:102EF80000303B44B944CBF80030F61B94E7226A13
:102F0800974218D094F91430002B0BDA012300995A
:102F18009AF80100FFF7D4FD0028ABD1237D03F018
:102F28007F03237503980099407801233A46FFF7F9
:102F3800B9FD00289ED12762039BB3F80C80A369D2
:102F4800B3FBF8F108FB1131A8EB0108B04547467F
:102F580028BF3746002FC7D0009B3A461944484639
:102F6800FFF731FEC0E7072573E7F7B501A9044667
:102F7800FFF70FFE054600283AD1237D5A0637D5BC
:102F88001B060CD50198226A4078012304F1300110
:102F9800FFF796FD78BB237D03F07F03237500F0D0
:102FA800CBF8616A07460198FFF795FE0546F8B920
:102FB800A66AF37A43F02003F372A26820683146C8
:102FC800FFF70AFEE16806F11C00FFF79DFD394690
:102FD80006F11600FFF798FD0198B5740123F57402
:102FE800C370FFF72EFE237D23F0400305462375AB
:102FF800284603B0F0BD0125FAE713B50446FFF7EC
:10300800B4FF48B901A92046FFF7C3FD20B92069DC
:10301800FFF788FD00B9206002B010BD30B50F4B36
:103028005D7A05F0FF04B5B95D7A5C555D7A03EB0E
:1030380085056860587A184402725A7AD2B2501CD0
:10304800C0B258723A2330324B702F230A708B70FB
:10305800CC70204630BD012030BD00BF5400002098
:103068000022FFF7DBBF000007B501208DF807003D
:103078009DF8073083420BD10748FEF735FE38B973
:103088004FF400610448FEF75DFE003018BF0120D0
:1030980003B05DF804FB00BF3C49002007B500936E
:1030A80013460A4601460448FEF782FA003018BF64
:1030B800012003B05DF804FB3C49002007B50093EC
:1030C80013460A4601460448FEF784FB003018BF41
:1030D800012003B05DF804FB3C49002008B5034813
:1030E800FEF7B6FE043818BF012008BD3C49002091
:1030F80001460148FEF713BE3C490020704708B559
:10310800FFF7FCFF08BD704708B5FFF7FCFF08BDD7
:10311800704708B5FFF7FCFF08BD000008B5034974
:103128000348FFF79DFF034B187008BD710000208E
:10313800843E00087000002000207047174B4FF0B5
:1031480055321A60A3F500631A6842F001021A604A
:103158001A6822F002021A601A6842F004021A6021
:103168001A6822F008021A601A6842F010021A60FF
:103178001A6822F020021A601A6842F040021A60A7
:103188001A6822F080021A601A6842F080621A6097
:103198001A6822F000621A60704700BF00100240EF
:1031A800054B064902229A6148614FF40031996142
:1031B80000BF00BF9A61704700080240001002403B
:1031C800034B4FF480229A6180B2FFF7E9BF00BF3A
:1031D80000080240024B04229A6180B2FFF7E0BF68
:1031E8000008024073B5614B002400941A6B42F04A
:1031F80004021A631A6B02F004020092009A019406
:103208001A6B42F010021A631B6B03F01003019350
:10321800019BFFF793FF564B0125022604229D616F
:1032280008219E614FF000509A614FF40052996155
:103238009A619A6198619A614FF40022996111200C
:103248009E619A61FFF7BCFFD020FFF7B9FF072006
:10325800FFF7C0FF4220FFF7BDFF1820FFF7BAFFB6
:10326800D120FFF7ADFF2046FFF7B4FF0720FFF797
:10327800B1FF1020FFF7AEFFD220FFF7A1FF2846CD
:10328800FFF7A8FF3046FFF7A5FFC020FFF798FF1C
:103298001020FFF79FFF3B20FFF79CFF2046FFF71A
:1032A80099FF3046FFF796FF1120FFF793FFC520DF
:1032B800FFF786FF0320FFF78DFFC820FFF780FF89
:1032C8002046FFF787FFF320FFF784FF2046FFF72C
:1032D80081FFBC20FFF77EFF5020FFF77BFF1F20F8
:1032E800FFF778FF2046FFF775FF0720FFF772FF0B
:1032F8007F20FFF76FFF0720FFF76CFF0F20FFF716
:1033080069FF2046FFF766FF3620FFF759FF0A20BE
:10331800FFF760FF3A20FFF753FF5520FFF75AFFEA
:103328002A20FFF74DFF2046FFF754FF2046FFF7FE
:1033380051FF2846FFF74EFF3F20FFF74BFF2B209A
:10334800FFF73EFF2046FFF745FF2046FFF742FF05
:103358002846FFF73FFFE020FFF73CFF2920FFF753
:103368002FFF2120FFF72CFF02B070BD003802406C
:1033780000080240F8B507462A200D4616461C46A6
:10338800FFF71EFF3812FFF725FF3846FFF722FF29
:103398003012FFF71FFF3046FFF71CFF2B20FFF707
:1033A8000FFF2812FFF716FF2846FFF713FF20121A
:1033B800FFF710FF2046FFF70DFF2C20BDE8F8406F
:1033C800FFF7FEBEF8B5144C1F464FF40023A36167
:1033D8001646CB198218013B013AFFF7CBFF0423AD
:1033E800A3610E480223A36100214FF400359E46D5
:1033F800B9420EDA002208E0069B4361A56100BFCE
:1034080000BF00BFC4F818E00132B242F4DB01315A
:10341800EEE70823A361F8BD00080240001002404F
:1034280007B5064B064A009000211B68126808463B
:10343800FFF7C8FF03B05DF804FB00BF08000020D9
:103448000C00002038B51449144B154D4FF4A072E8
:103458004FF4F07402280A601C60286007D0032823
:1034680013D0012815D10C601A60282400E0092423
:103478000C4D4FF40023AB613620FFF7A1FE204628
:10348800FFF7A8FE0823AB6138BD0C601A602B2437
:10349800EEE70A24ECE700BF0C000020080000203B
:1034A800600000200008024038B5094D094C284644
:1034B800FEF710FE2046FEF70DFE2846FEF731FE09
:1034C8002046FEF72EFE0448BDE83840FFF795BDBC
:1034D800E4480020545C0020244C00200268444B3F
:1034E8009A4273B505462BD1424E338801339BB2BD
:1034F800338033889BB2FF2B1BD93F4B1988082494
:1035080089B200944FF48073002946D13B4A3C4865
:10351800FDF7FCF93B4A00944FF4807310213848BA
:10352800FDF7F4F90023384A3380138801339BB23E
:10353800138033889BB20A2B02D13448FEF7E1FD91
:103548002A68334B9A4250D12B4C324D23889BB278
:103558006BBB2B464FF400722F493048FFF746FCEF
:103568002B68B3F5007F01D0FFF79EFF2C4D2A4A48
:103578002C49002302EB430012F8136040785E5593
:1035880058540133B3F5807FF4D101231F482380B9
:1035980002B0BDE87040FEF7C4BD214A18480021BA
:1035A800FDF7B4F900944FF480731E4AB6E72B4632
:1035B8004FF400721C491948FFF718FC2B68B3F543
:1035C800007F01D0FFF770FF0C4D174A0D4900230B
:1035D80002EB430012F8136040785E5558540133EB
:1035E800B3F5807FF4D10023D0E702B070BD00BFEF
:1035F800001000406800002066000020244B0020D6
:10360800703600207421002064000020545C0020E3
:103618000014004028490020C8330020244C002012
:10362800C0490020945C00208436002030B595B055
:103638003022002108A800F009FC0021142203A868
:1036480000F004FC00241B4B01941A6C42F08052D9
:103658001A641B6C03F080530193019B164B029470
:103668001A6842F480421A601B680F9403F480437E
:103678000293029B01230B9310230C9308231093AE
:10368800A8230225119308A80723139308950E95DC
:103698001295FDF79FFC0F23039305214FF4A053C8
:1036A80003A80495059406930793FDF767FE15B0E4
:1036B80030BD00BF003802400070004080B58AB0BD
:1036C8000024714D714EFCF727FFFFF7AFFF0294FE
:1036D8002B6B43F080032B632B6B03F08003029367
:1036E800029B03942B6B43F001032B632B6B03F0BA
:1036F80001030393039B04942B6B43F004032B6394
:103708002B6B03F004030493049B05942B6B43F089
:1037180008032B632B6B03F0080310222146059343
:1037280006A8059B00F092FB594BB460012786E878
:1037380018003046574BB362F761776134613476CD
:1037480086F82040F462F46086F83040FCF724FFE5
:1037580006A93046079706940894FCF7C3FF4E4B1A
:103768004E4A9C6083E81400DC601C615C619C61CB
:10377800FFF7D4FC00942B6B43F480032B632B6B73
:1037880003F480030093009B01942B6B43F4001314
:103798002B632B6B424D03F4001322462146019301
:1037A8001020019BFDF746F81020FDF777F8224618
:1037B80021461120FDF73EF81120FDF76FF822464B
:1037C80021463B20FDF736F83B20FDF767F82246F7
:1037D80021464520FDF72EF84520FDF75FF83148D2
:1037E800314B0360FDF766FE304B2B60284606948C
:1037F8000794FDF777F80423224606A9284606937E
:103808000794FDF730F9102206A92846284DFDF740
:103818002AF9284BAC604FF014087C27284685E825
:103828000801EF60AC61202606940794FEF79AFD24
:1038380006A92846204D06960794FEF7ADFD1F4BB6
:103848000694284685E808010794AC60EF60AC61EF
:10385800FEF788FD06A9284606960794FEF79CFD04
:103868003220FCF785FEFFF7BDFC0320FFF7EAFDD9
:103878003220FCF77DFE2046FFF7D2FD4FF6FF70A1
:10388800FFF7CEFD0020F7E7003802402836002079
:10389800002001400100000F3C490020002C01409D
:1038A800703600202C4900200008065000740040A3
:1038B800E448002000100040545C00200014004040
:1038C8007047000010B5064C01232370FFF706FC73
:1038D800234618B9227802F0FE022270187810BD2B
:1038E8001000002010B5054C01232370FFF7BCFB26
:1038F80010B9FFF7E7FF2070207810BD10000020F6
:10390800FFF7E0BF08B5084611461A464FF0FF33E7
:10391800FFF7C4FB20B9FFF7E1FB0028FBD108BD86
:10392800012008BD10B5124B1B78DB0788B0144680
:103938001BD4032903D8DFE801F010050B1204207B
:1039480008B010BD6846FFF7D3FB069B236004E070
:103958006846FFF7CDFB079B23800020F0E7684609
:10396800FFF7C6FB079B5B0AF0E70320E8E700BF09
:103978001000002008B5084611461A464FF0FF33DC
:10398800FFF79CFB20B9FFF7A9FB0028FBD108BD76
:10399800012008BD82B00C4B002100915A6C42F402
:1039A80080425A645A6C02F480420092009A019153
:1039B8001A6C42F080521A641B6C03F08053019316
:1039C800019B02B0704700BF0038024010B50446A2
:1039D80088B01422002103A800F038FA2268124B9C
:1039E8009A421ED103F58C33002101915A6C0F487D
:1039F80042F480725A645A6C02F480720192019AFD
:103A080002911A6B42F001021A631B6B03F0010367
:103A18000293029B0F23039303A903230493FDF747
:103A2800F9F908B010BD00BF0020014000000240B5
:103A380070B5064688B01422002103A800F006FAE3
:103A480032682F4B9A4259D1002503F5E23301958C
:103A58001A6C2C482C4C42F000521A641A6C02F072
:103A680000520192019A02951A6B42F001021A6300
:103A78001B6B03F001030293029B3023039303A9FA
:103A880003230493FDF7C6F9204AE5604FF060630D
:103A98004FF0400C84E80C1020464FF480632361FB
:103AA8006561A561E56125626562FDF72FF808B1DA
:103AB800FFF706FFB460164BA663164C4FF060651F
:103AC8004FF0400E84E828404FF4806200232046DF
:103AD800E36022616361A361E36123626362FDF7CE
:103AE80015F808B1FFF7ECFE0022F4603620114605
:103AF800A663FCF79FFE3620FCF7D0FE08B070BD29
:103B08000074004000000240C83500208860024070
:103B1800A0600240C44A00200268094B9A4282B061
:103B28000BD100230193074B5A6B42F040025A63B2
:103B38005B6B03F040030193019B02B0704700BF29
:103B480000080650003802402DE9F043064689B0C7
:103B58001422002103A800F079F932684D4B9A42EB
:103B680040F0948003F58633002500955A6C4A4846
:103B780042F400625A645A6C02F400620092009A9D
:103B880001951A6B42F004021A631A6B02F00402E0
:103B98000192019A02951A6B42F008021A631B6B94
:103BA80003F008030C24029303270DEB0401029B86
:103BB80007944FF4F8534FF0020903934FF00408A9
:103BC800CDF810900697FDF725F90DEB0401334861
:103BD8000794CDF80C80324CCDF8109005950697D7
:103BE800FDF718F92F4BE5604FF0006C4FF0400ED1
:103BF80084E808504FF4806323614FF48053636175
:103C08004FF48043A3612023E3614FF40003E36290
:103C180020464FF400132562C4F82480A76223636A
:103C2800FCF774FF08B1FFF74BFE1F48F463A66367
:103C38001E4C4FF0006384E8090000234FF48062B3
:103C4800A360E36023620423226163624FF480521D
:103C580003236261A3624FF480424FF40003A26120
:103C6800E36220224FF400132046E2612363FCF74D
:103C78004DFF08B1FFF724FE0022312034641146BD
:103C8800A663FCF7D7FD3120FCF708FE09B0BDE8B4
:103C9800F08300BF002C014000080240000C0240E5
:103CA8008440002058640240A0640240142100208F
:103CB80007B50368164A934215D10022154B0092A6
:103CC800196C41F0100119641B6C03F01003009388
:103CD80036201146009BFCF7ADFD3620FCF7DEFDD3
:103CE80003B05DF804FB0C4A9342F9D1094B00225A
:103CF8000192196C41F0200119641B6C03F0200338
:103D0800019337200121019BFCF794FD3720E5E75B
:103D18000010004000380240001400407047FEE7E1
:103D2800FEE7FEE7FEE7704770477047FCF70EBCFA
:103D38000148FCF7B5BF00BFC83500200148FCF7B3
:103D4800AFBF00BFC44A00200148FEF7B7B800BFA4
:103D58003C49002008B50448FCF759FE0348BDE873
:103D68000840FEF7F7B900BF70360020E44800208D
:103D78000148FEF7EFB900BF545C00200148FCF78A
:103D88008FBF00BF844000200148FCF789BF00BFF7
:103D980014210020054BD3F8882042F47002C3F8A0
:103DA80088204FF000629A60704700BF00ED00E085
:103DB800DFF834D0002103E00C4B5B58435004314A
:103DC8000B480C4B42189A42F6D30B4A02E00023E8
:103DD80042F8043B094B9A42F9D3FFF7DBFF00F0A6
:103DE80011F8FFF76BFC704700000220B83E00088E
:103DF800000000201800002018000020945D00201A
:103E0800FEE7000070B50D4E0D4CA41BA410002554
:103E1800A54209D10B4E0C4C00F020F8A41BA410AD
:103E28000025A54205D170BD56F8253098470135C3
:103E3800EEE756F8253098470135F2E7B03E00081E
:103E4800B03E0008B03E0008B43E000802440346F5
:103E5800934200D1704703F8011BF9E7F8B500BF9A
:103E6800F8BC08BC9E467047F8B500BFF8BC08BC53
:043E78009E467047AB
:103E7C000006101600061016ED3800080939000867
:103E8C000D3900087D3900082D39000800000000AC
:0C3E9C00000000000102030406070809F2
:083EA80050C3FF7F0100000080
:043EB000AD01000858
:043EB4008901000878
:103EB8000100000010000000E001000040010000C7
:083EC800010000000024F400D9
:0400000508003DB9F9
:00000001FF
